:100000000C94B8010C94E9010C94E9010C94E901F9
:100010000C94E9010C94E9010C94E9010C94E901B8
:100020000C94E9010C94E9010C94E9010C94E901A8
:100030000C94E9010C94E9010C94E9010C94E90198
:100040000C94E9010C941D070C94E9010C94E9014E
:100050000C94E9010C94E9010C94E9010C94D30689
:100060000C94E9010C94E9010C94E9010C94E90168
:100070000C94E9010C94E9010C94E9010C94E90158
:100080000C94E9010C94E9010C94E9010C94E90148
:100090000C94E9010C94E9010C94E9010C94E90138
:1000A0000C94E9010C94E9010C94E9010C94E90128
:1000B0000C94E9010C94E9010C94E9010C94E90118
:1000C0000C94E9010C94E9010C94E9010C94E90108
:1000D0000C94E9010C94E9010C94E9010C94E901F8
:1000E0000C94E9010C9482020C943A020C9486025E
:1000F0000C943F020C947E020C9455020C947802EE
:100100000C94C8080C9466020C9451020C948C0256
:100110000C9460020C9443050C9470020C945902E8
:100120000C94ED020C9474020C941A030C945D026E
:100130000C941B030C946A020C9490023030003033
:10014000310030320030330030340030350030368A
:1001500000303700303800303900313000313100A4
:100160003132003133003134003135003136003165
:10017000370031380031390032300032310032324C
:10018000003233003234003235003236003237006C
:10019000323800323900333000333100333200332B
:1001A000330033340033350033360033370033380F
:1001B000003339003430003431003432003433003D
:1001C00034340034350034360034370034380034E9
:1001D00039003530003531003532003533003534E3
:1001E00000353500353600353700353800353900F3
:1001F00036300036310036320036330036340036C1
:10020000350036360036370036380036390037309C
:1002100000373100373200373300373400373500CC
:100220003736003737003738003739003830003874
:100230003100383200383300383400383500383671
:10024000003837003838003839003930003931008B
:100250003932003933003934003935003936003944
:10026000370039380039390000000A0B02090C0D3B
:100270000E08070304010000000000000000000059
:10028000000000000000000000000000000000006E
:10029000000000001211100000000000000000002B
:1002A000000000000000000000000000000000004E
:1002B0002200250028002B002E003100340002010E
:1002C0000000050108010B010000210024002700A7
:1002D0002A002D0030003300010100000401070155
:1002E0000A010505050507050808080802020202BB
:1002F0000A0A0808040404040101010101010101C2
:100300000303030303030303040707070C0C0C0C8C
:100310000C0C0C0C02020202060606060606060675
:100320000B0B0B0B0B0B0B0B010210202008081002
:100330002040102040800201020108040201010255
:10034000040810204080804020100804020180042E
:100350000201804020100804020108040201010289
:100360000408102040800102040810204080C808C2
:1003700011241FBECFEFD1E2DEBFCDBF00E00CBF26
:1003800012E0A0E0B2E0EAEEF1E100E00BBF02C053
:1003900007900D92A035B107D9F722E0A0E5B2E0B1
:1003A00001C01D92AD37B207E1F711E0C8EBD1E013
:1003B00000E006C021970109802FFE010E94EB0892
:1003C000C73BD10780E00807A9F70E946D070C948E
:1003D000F3080C94000090E0FC01E85DFC4F2491D0
:1003E0008E519D4FFC018491882399F090E0880FF5
:1003F000991FFC01E853FD4FA591B491FC01E25512
:10040000FD4F859194918FB7F894EC91E22BEC938A
:100410008FBF0895282F30E0F901E859FD4F9491DE
:10042000F901E85DFC4F44912E513D4FF9012491B3
:10043000222309F435C0992311F191509231F8F437
:10044000E92FF0E08827E85DFD4F8F4F0C94EB0813
:1004500059025D023A02510255023F0260026602F1
:100460006A027002740278027E0282023F028602F1
:100470008C029002809180008F7780938000E22F21
:10048000F0E0EE0FFF1FE255FD4FA591B4918FB73D
:10049000F894EC91611148C040954E234C938FBF66
:1004A0000895809180008F7DE8CF80918000877FC4
:1004B000E4CF84B58F7784BDE2CF84B58F7DFBCF49
:1004C0008091B0008F778093B000D9CF8091B00039
:1004D0008F7DF9CF809190008F7780939000CFCF60
:1004E000809190008F7DF9CF80919000877FF5CF2C
:1004F0008091A0008F778093A000C1CF8091A00051
:100500008F7DF9CF8091A000877FF5CF809120016A
:100510008F7780932001B3CF809120018F7DF9CF19
:1005200080912001877FF5CF4E2BB8CF3FB7F8944D
:100530008091610290916202A0916302B091640285
:1005400026B5A89B05C02F3F19F00196A11DB11D2E
:100550003FBFBA2FA92F982F8827BC01CD01620F6A
:10056000711D811D911D42E0660F771F881F991F25
:100570004A95D1F708958F929F92AF92BF92CF92F2
:10058000DF92EF92FF924B015C010E9496026B0199
:100590007C010E9496026C197D098E099F09683EB4
:1005A000734081059105A8F321E0821A9108A10802
:1005B000B10888EEC80E83E0D81EE11CF11C81143E
:1005C0009104A104B10429F7FF90EF90DF90CF9040
:1005D000BF90AF909F908F900895AF92BF92CF92AF
:1005E000DF92EF92FF920F931F93CF93DF936C01F3
:1005F0007B018B01040F151FEB015E01AE18BF08D4
:10060000C017D10759F06991D601ED91FC91019085
:10061000F081E02DC6011995892B79F7C501DF918D
:10062000CF911F910F91FF90EF90DF90CF90BF90EF
:10063000AF900895089590E080E0089561E080E033
:100640000E940A0268EC70E080E090E00E94BB0229
:1006500060E080E00C940A0261E080E00E940A02FF
:100660006FE070E080E090E00E94BB0260E080E01C
:100670000C940A02CF93C091010280910901C1300C
:1006800009F0A7C0803F09F445C062E370E080E054
:1006900090E00E94BB0210920102C09300028EEF14
:1006A00080930B01000090910B0180910901981338
:1006B00020C08DEF80930B01000090910B01809181
:1006C0000901981316C08BEF80930B0100009091E5
:1006D0000B018091090198130CC087EF80930B01E7
:1006E000000090910B0180910901981302C01092B3
:1006F000000280910002813051F4809109018E3E08
:1007000069F481E380935A0281E080935B0280EF79
:1007100080930B0180915B02CF9108958091090134
:100720008E3D11F482E3EECF809109018E3B11F4EE
:1007300083E3E8CF809109018D3E11F484E3E2CF99
:10074000809109018D3D11F485E3DCCF8091090191
:100750008D3B11F486E3D6CF809109018B3E11F4D5
:1007600087E3D0CF809109018B3D11F488E3CACF94
:10077000809109018B3B11F489E3C4CF8091090179
:10078000873D11F480E3BECF809109018E3711F4CB
:1007900081E4B8CF809109018D3711F482E4B2CFA2
:1007A000809109018B3711F483E4ACCF809109016A
:1007B000873711F484E4A6CF80910901873B11F4B7
:1007C00085E4A0CF80910901873E09F09DCF86E4A2
:1007D00099CF803F09F09ECF68EC70E080E090E018
:1007E0000E94BB0281E08093010294CFCF93DF93FC
:1007F000EC0160E08E810E940A0261E08E810E941D
:100800000A0260E08E810E940A028BE891E0019763
:10081000F1F7DF91CF910895CF92DF92EF92FF929F
:100820000F931F93CF93DF936C017C0187E0E80E59
:10083000F11CD0E0C0E0062F10E0B8010C2E02C081
:10084000759567950A94E2F76170F70181917F01D0
:100850000E940A022196C430D10579F7C601DF91C2
:10086000CF911F910F91FF90EF90DF90CF900C945C
:10087000F603CF92DF92EF92FF920F931F93CF93E5
:10088000DF93EC01F62E642F8C810E940A028D8189
:100890008F3F19F060E00E940A020F2D10E08F8553
:1008A00084FF25C06E0187E0C80ED11CF12CE12C1D
:1008B000B8010E2C02C0759567950A94E2F7617035
:1008C000F60181916F010E940A02FFEFEF1AFF0A01
:1008D00088E0E816F10461F7CE01DF91CF911F9116
:1008E0000F91FF90EF90DF90CF900C94F603B8013A
:1008F00084E0759567958A95E1F7CE010E940C0416
:100900006F2DCE01DF91CF911F910F91FF90EF904E
:10091000DF90CF900C940C0440E0682F85E692E0C5
:100920000C943904CF93DF93823029F490917402B0
:10093000986090937402809378021092790280E418
:1009400080937A0280E180937B0280E580937C0231
:10095000809169020E94EB0180916A028F3F11F041
:100960000E94EB0180916B020E94EB01C5E6D2E090
:100970009E01255632408091740284FD0AC084E0B5
:1009800090E02196281739073CF48E810E94EB01F4
:10099000EFCF88E090E0F5CF8BE39DE00197F1F792
:1009A00060E0809169020E940A0260E080916B021F
:1009B0000E940A0280916A028F3F19F060E00E9453
:1009C0000A028091740284FD39C063E085E692E0FA
:1009D0000E940C04CBE4D6E4CE010197F1F763E06A
:1009E00085E692E00E940C042197F1F763E085E62A
:1009F00092E00E940C0483E592E00197F1F762E037
:100A000085E692E00E940C048091740280620E944C
:100A10008C0484E0809375028CE00E948C0481E059
:100A20000E948C048BE39FE10197F1F782E08093B1
:100A3000760286E0DF91CF910C948C0480620E9454
:100A40008C048BE496E40197F1F780917402806244
:100A50000E948C0483E592E00197F1F78091740283
:100A600080620E948C04D0CF90917802891710F098
:100A70008FEF890FE82FF0E0EB59FD4F84898C5FF1
:100A800080680C948C0441E00E94390481E090E07D
:100A900008950F931F93CF93DF93EC018C01060F02
:100AA000171F699185E692E00E944305C017D107A0
:100AB000C1F7DF91CF911F910F910895CF93FC0162
:100AC000862F9481992371F19081911128C0918191
:100AD000911120C09BE390839183928191509283E6
:100AE000908191112AC09181911127C09281911119
:100AF00024C0C42F14829EE1938361E00E940A0205
:100B00008C2F0E94340568E070E08EE092E0CF9177
:100B10000C9449052BE3208391509183E1CF9150B0
:100B20009083DECF9381992341F09150938360E0CD
:100B300090FD61E0CF910C940A02CF9108950F933C
:100B40001F93CF93DF93EC018C01060F171FFE015B
:100B5000649185E692E00E9443052196C017D10773
:100B6000B1F7DF91CF911F910F910895CF92DF924E
:100B7000FF920F931F93CF93DF9300D000D000D04C
:100B8000CDB7DEB76C01062F89E0E6E4F2E0DE01C6
:100B9000119601900D928A95E1F7862F0E943405F7
:100BA00068E070E0CE0101960E94490510E019301E
:100BB000A0F50E943A038823D1F30E942C031092DF
:100BC0005B0280915A028634C9F4802F0E9434055A
:100BD00068E070E087E192E00E9449050E941E03F0
:100BE00029960FB6F894DEBF0FBECDBFDF91CF912F
:100BF0001F910F91FF90DF90CF900895183009F06A
:100C00003EC0853411F50E942C0364E670E080E05C
:100C100090E00E94BB020E942C0329819AE08A8105
:100C20008051299F800D1124F60182832C818D81B2
:100C30008051299F800D112481832F8188858051C7
:100C4000299F800D11248083CBCF802F0E943405F3
:100C500069E070E080E292E00E9449050E941E0374
:100C6000802F0E94340568E070E0CE0101960E945A
:100C7000490560E285E692E00E9443059ACFEAE2E8
:100C8000F2E09191891789F092E0E433F907C9F70E
:100C9000802F0E94340567E070E085E392E00E94B7
:100CA00049050E941E03F12E1FC0133011F01630AB
:100CB00041F4863321F1873311F1883301F189330F
:100CC000F1F0E1E0F0E0EC0FFD1FE10FF11D80839A
:100CD000FF24F394F10EE2E0FE1619F0F5E0FF12A6
:100CE00003C082E0F82EF10E802F0E94340568E0E8
:100CF00070E0CE0101960E9449051F2D58CF802F2C
:100D00000E94340568E070E08DE392E00E9449059E
:100D10000E941E03802F0E94340568E070E0CE011F
:100D200001960E94490543CF1F93CF93DF9300D0D4
:100D30001F921F92CDB7DEB749835A836B83822FF0
:100D40000E9434058B8113E0819FC001112462E071
:100D500070E0845C9E4F0E949F056AE385E692E006
:100D60000E9443058A81819FC001112462E070E0E6
:100D7000845C9E4F0E949F056AE385E692E00E9494
:100D800043058981819FC001112462E070E0845C89
:100D90009E4F0F900F900F900F900F90DF91CF917B
:100DA0001F910C949F051F920F920FB60F92112462
:100DB0002F933F938F939F93AF93BF9380915D0247
:100DC00090915E02A0915F02B091600230915C024E
:100DD00023E0230F2D3758F50196A11DB11D209357
:100DE0005C0280935D0290935E02A0935F02B093D9
:100DF00060028091610290916202A0916302B091C1
:100E000064020196A11DB11D80936102909362025C
:100E1000A0936302B0936402BF91AF919F918F91B1
:100E20003F912F910F900FBE0F901F90189526E8BD
:100E3000230F0296A11DB11DD2CF1F920F920FB6A4
:100E40000F9211240BB60F922F933F934F935F9302
:100E50006F937F938F939F93AF93BF93EF93FF9382
:100E600040E064E285E592E00E945E0541E063E2D5
:100E700080E592E00E945E0580915902882359F036
:100E800020E04091550250915602609157027091B6
:100E900058020E94940680915402882359F021E060
:100EA0004091500250915102609152027091530250
:100EB0000E949406FF91EF91BF91AF919F918F9106
:100EC0007F916F915F914F913F912F910F900BBE4A
:100ED0000F900FBE0F901F901895789484B5826084
:100EE00084BD84B5816084BD85B5826085BD85B5CE
:100EF000816085BD80916E00816080936E0010924C
:100F000081008091810082608093810080918100C6
:100F10008160809381008091800081608093800057
:100F20008091B10084608093B1008091B0008160B5
:100F30008093B000809191008260809391008091B5
:100F400091008160809391008091900081608093F6
:100F500090008091A10082608093A1008091A10007
:100F600081608093A1008091A00081608093A000A7
:100F70008091210182608093210180912101816013
:100F800080932101809120018160809320018091D4
:100F90007A00846080937A0080917A0082608093E6
:100FA0007A0080917A00816080937A0080917A0043
:100FB000806880937A001092C100F89410928000AB
:100FC0008DE08093810082E080936F0088E09DE354
:100FD00090938900809388008FE080930A0180EFCE
:100FE00080930B0182E00E949204789480E00E943A
:100FF000EB0160E080E00E940A0284E20E94EB01C3
:1010000060E084E20E940A0283E20E94EB0160E059
:1010100083E20E940A0220E040915502509156025C
:101020006091570270915802809159020E94940673
:1010300021E0409150025091510260915202709112
:101040005302809154020E949406C0E0D0E00E94B6
:101050003A03882359F00E942C0310925B0280917E
:101060005A028234E1F13CF48134F1F0209779F3B3
:101070000E940000ECCF833409F44AC08434B1F7F5
:1010800080915402882309F46EC010925402109289
:101090005202109251021092500221E040E050E0C2
:1010A00060E07091530246C01092590210925802AB
:1010B00060E084E20E940A0260E085E592E00E941E
:1010C000B60520E0409155025091560260915702BA
:1010D00070915802809159020E949406C7CF1092D5
:1010E00054021092530260E083E20E940A0261E01F
:1010F00080E592E00E94B60521E0409150025091B7
:101100005102609152027091530280915402E4CFD7
:1011100080915902882381F010925902109257024F
:10112000109256021092550220E040E050E060E03C
:101130007091580280E0D0CF80915702811108C091
:1011400080915602811104C080915502882321F0BC
:1011500081E0809359028ACF1092580260E084E2C5
:101160000E940A0283CF80915202811108C08091AF
:101170005102811104C080915002882321F081E046
:101180008093540273CF1092530260E083E2E8CF61
:10119000E5E6F2E01382128286E092E0918380839A
:1011A00083E1848384E1858385E1868386E1878387
:1011B00087E1808788E1818789E182878AE1838767
:1011C0008BE184878CE185878DE1868780E1878745
:1011D00081E00C949204EE0FFF1F881F8BBF0790D5
:0A11E000F691E02D1994F894FFCF6A
:1011EA000101000000004305ED021B031A03303021
:1011FA003A30303A30300053746F7070696E67005D
:10120A00232D636F6E6669726D0030313233343567
:10121A003637383900426164206B6579004261646F
:10122A002074696D650020203A20203A20200000B1
:00000001FF
