:020000040000FA
:100000000C9435000C945D000C945D000C945D0024
:100010000C945D000C945D000C945D000C945D00EC
:100020000C945D000C945D000C945D000C945D00DC
:100030000C945D000C945D000C945D000C945D00CC
:100040000C941B020C945D000C94E9010C94C30108
:100050000C9465020C945D000C945D000C945D00A2
:100060000C945D000C945D00920311241FBECFEF31
:10007000D8E0DEBFCDBF11E0A0E0B1E0EEE8F7E0F0
:1000800002C005900D92A033B107D9F723E0A0E399
:10009000B1E001C01D92A63DB207E1F710E0C5E353
:1000A000D0E004C02197FE010E94BF03C433D107F2
:1000B000C9F70E9470020C94C5030C940000AF9223
:1000C000BF92CF92DF92EF92FF920F931F93CF9345
:1000D000DF936C017B018B01040F151FEB015E01A7
:1000E000AE18BF08C017D10759F06991D601ED913C
:1000F000FC910190F081E02DC6010995892B79F7DB
:10010000C501DF91CF911F910F91FF90EF90DF908C
:10011000CF90BF90AF900895FC01538D448D252F53
:1001200030E0842F90E0821B930B541710F0CF9691
:10013000089501970895FC01918D828D981761F0C3
:10014000A28DAE0FBF2FB11D5D968C91928D9F5FDA
:100150009F73928F90E008958FEF9FEF0895FC01B9
:10016000918D828D981731F0828DE80FF11D858D6C
:1001700090E008958FEF9FEF0895FC01918D228DFF
:10018000892F90E0805C9F4F821B91098F73992784
:10019000089589E393E00E94BD0021E0892B09F4D2
:1001A00020E0822F089580E090E0892B29F00E94C2
:1001B000C90081110C9400000895FC01A48DA80FC2
:1001C000B92FB11DA35ABF4F2C91848D90E0019699
:1001D0008F739927848FA689B7892C93A089B189B9
:1001E0008C91837080648C93938D848D981306C05A
:1001F0000288F389E02D80818F7D80830895EF92BE
:10020000FF920F931F93CF93DF93EC0181E0888FD0
:100210009B8D8C8D98131AC0E889F989808185FFA0
:1002200015C09FB7F894EE89FF896083E889F98942
:1002300080818370806480839FBF81E090E0DF9144
:10024000CF911F910F91FF90EF900895F62E0B8D97
:1002500010E00F5F1F4F0F731127E02E8C8D8E1152
:100260000CC00FB607FCFACFE889F989808185FFB9
:10027000F5CFCE010E94DD00F1CFEB8DEC0FFD2F0D
:10028000F11DE35AFF4FF0829FB7F8940B8FEA8974
:10029000FB8980818062CFCFCF93DF93EC01888D83
:1002A0008823B9F0AA89BB89E889F9898C9185FDF1
:1002B00003C0808186FD0DC00FB607FCF7CF8C917F
:1002C00085FFF2CF808185FFEDCFCE010E94DD005A
:1002D000E9CFDF91CF9108953FB7F8948091350130
:1002E00090913601A0913701B091380126B5A89BB5
:1002F00005C02F3F19F00196A11DB11D3FBFBA2FB8
:10030000A92F982F8827BC01CD01620F711D811D77
:10031000911D42E0660F771F881F991F4A95D1F7FC
:1003200008958F929F92AF92BF92CF92DF92EF92F9
:10033000FF924B015C010E946C016B017C010E94E9
:100340006C016C197D098E099F09683E7340810517
:100350009105A8F321E0821A9108A108B10888EE5E
:10036000C80E83E0D81EE11CF11C81149104A10485
:10037000B10429F7FF90EF90DF90CF90BF90AF903E
:100380009F908F9008951F920F920FB60F92112495
:100390002F933F934F935F936F937F938F939F938D
:1003A000AF93BF93EF93FF9389E393E00E94DD0047
:1003B000FF91EF91BF91AF919F918F917F916F913D
:1003C0005F914F913F912F910F900FBE0F901F9013
:1003D00018951F920F920FB60F9211242F938F939F
:1003E0009F93EF93FF93E0914903F0914A0380813B
:1003F000E0914F03F091500382FD1BC090818091EA
:1004000052038F5F8F7320915303821741F0E09165
:100410005203F0E0E75CFC4F958F80935203FF910D
:10042000EF919F918F912F910F900FBE0F901F9082
:1004300018958081F4CF1F920F920FB60F9211245E
:100440002F933F938F939F93AF93BF9380913101ED
:1004500090913201A0913301B0913401309130017B
:1004600023E0230F2D3758F50196A11DB11D2093D0
:1004700030018093310190933201A0933301B09306
:1004800034018091350190913601A0913701B091EE
:1004900038010196A11DB11D80933501909336015D
:1004A000A0933701B0933801BF91AF919F918F9185
:1004B0003F912F910F900FBE0F901F90189526E837
:1004C000230F0296A11DB11DD2CF1F920F920FB61E
:1004D0000F9211245A980F900FBE0F901F901895ED
:1004E000789484B5826084BD84B5816084BD85B50F
:1004F000826085BD85B5816085BD80916E0081601B
:1005000080936E00109281008091810082608093C0
:1005100081008091810081608093810080918000C2
:100520008160809380008091B10084608093B100ED
:100530008091B00081608093B00080917A008460E7
:1005400080937A0080917A00826080937A00809113
:100550007A00816080937A0080917A00806880932D
:100560007A001092C10064E670E080E090E00E94A2
:10057000910187E08AB988EF8BB9E9E3F1E030E0D7
:1005800020E0C90148E0BC01880F991F77FF04C033
:1005900051E2852750E195274150A9F78193919326
:1005A000339583E0E933F80761F7E0914903F0916F
:1005B0004A0382E08083E0914503F0914603108274
:1005C000E0914703F09148038AE880831092510339
:1005D000E0914D03F0914E0386E08083E0914B0360
:1005E000F0914C03808180618083E0914B03F09116
:1005F0004C03808188608083E0914B03F0914C0331
:10060000808180688083E0914B03F0914C0380816E
:100610008F7D80838091C10084648093C10080912C
:10062000C00081608093C000C0E0D1E0C095D0954B
:10063000ECE1FE2E00E010E078E0E72E89E393E0A5
:100640000E94BD00892B09F456C089E393E00E9403
:100650009B008B3909F04FC08091C0008E7F809342
:10066000C0005A9A61E070E080E090E00E94910141
:10067000A0E0B1E08FEF9FEF382F22274D91E92FB7
:10068000FF27E427EE0FFF1FE75CFE4F808191817B
:1006900082279327E1E0AC31BE0771F790931C01EC
:1006A00080931D01D12CC12C80E0A82E81E0B82EB2
:1006B000F50161915F01F1E0CF16D10441F5CE0162
:1006C0008A0D9B1D4B9709F46E2589E393E00E94E8
:1006D000FF005EE1A51651E0B50651F78FEFC81A8D
:1006E000D80AE5E0CE16D104F9F668EC70E080E0B7
:1006F00090E00E9491010115110509F49FCF0E941D
:10070000C900882309F49ACF0E94000095CF24E005
:10071000C216D104D1F6CE018A0D9B1D0597A9F60C
:100720006F25D3CFE9E3F3E01382128288EE93E0E2
:10073000A0E0B0E084839583A683B78382E291E052
:100740009183808385EC90E09587848784EC90E0AA
:100750009787868780EC90E0918B808B81EC90E08E
:10076000938B828B82EC90E0958B848B86EC90E06F
:10077000978B868B118E128E138E148E0895EE0F2A
:10078000FF1F0590F491E02D0994F894FFCF01022A
:10079000030405061F1008090A040B0C100D0B0EAC
:1007A0000206030B0F020F0D1E1F101000000000A9
:0E07B000FF005F008C004C01BD009B00AF00FD
:107E0000112484B714BE81FFF0D085E080938100F7
:107E100082E08093C00088E18093C10086E0809377
:107E2000C20080E18093C4008EE0C9D0259A86E02C
:107E300020E33CEF91E0309385002093840096BBD3
:107E4000B09BFECF1D9AA8958150A9F7CC24DD24C4
:107E500088248394B5E0AB2EA1E19A2EF3E0BF2EE7
:107E6000A2D0813461F49FD0082FAFD0023811F036
:107E7000013811F484E001C083E08DD089C08234E0
:107E800011F484E103C0853419F485E0A6D080C0E4
:107E9000853579F488D0E82EFF2485D0082F10E0AE
:107EA000102F00270E291F29000F111F8ED06801E7
:107EB0006FC0863521F484E090D080E0DECF843638
:107EC00009F040C070D06FD0082F6DD080E0C81688
:107ED00080E7D80618F4F601B7BEE895C0E0D1E017
:107EE00062D089930C17E1F7F0E0CF16F0E7DF06D8
:107EF00018F0F601B7BEE89568D007B600FCFDCFD4
:107F0000A601A0E0B1E02C9130E011968C91119780
:107F100090E0982F8827822B932B1296FA010C0160
:107F200087BEE89511244E5F5F4FF1E0A038BF0790
:107F300051F7F601A7BEE89507B600FCFDCF97BE46
:107F4000E89526C08437B1F42ED02DD0F82E2BD052
:107F50003CD0F601EF2C8F010F5F1F4F84911BD097
:107F6000EA94F801C1F70894C11CD11CFA94CF0C13
:107F7000D11C0EC0853739F428D08EE10CD085E9AC
:107F80000AD08FE07ACF813511F488E018D01DD067
:107F900080E101D065CF982F8091C00085FFFCCF94
:107FA0009093C60008958091C00087FFFCCF809118
:107FB000C00084FD01C0A8958091C6000895E0E648
:107FC000F0E098E1908380830895EDDF803219F02E
:107FD00088E0F5DFFFCF84E1DECF1F93182FE3DFCA
:107FE0001150E9F7F2DF1F91089580E0E8DFEE27F6
:047FF000FF270994CA
:027FFE00040479
:00000001FF
