:100000000C9428010C9459010C9459010C94590139
:100010000C9459010C9459010C9459010C945901F8
:100020000C9459010C9459010C9459010C945901E8
:100030000C9459010C9459010C9459010C945901D8
:100040000C9459010C9459010C9459010C945901C8
:100050000C9459010C9459010C9459010C94F4021C
:100060000C9459010C94C8030C949E030C945901F0
:100070000C9459010C9459010C9459010C94590198
:100080000C9459010C9459010C9459010C94590188
:100090000C9468030C943E030C94FE030C945901D9
:1000A0000C9459010C9459010C9459010C94590168
:1000B0000C9459010C9459010C9459010C94590158
:1000C0000C9459010C9459010C9459010C94590148
:1000D0000C9459010C9459010C9459010C94590138
:1000E0000C9459010C9403060C94F5050C9402022F
:1000F0000C9418050C94DD050C94F1050C94CE05B8
:100100000C94D2050C94B2010C940D060C94D605F7
:100110000C94E7050C9410020C9409040C94E3056C
:100120000C941D050C94EE010C9409060C945202DB
:100130000C94DA050C94FB050C94FF050C94DF017C
:100140000C94ED050C949F02000021002400270070
:100150002A002D00300033000101000004010701D6
:100160000A0100002200250028002B002E0031008B
:10017000340002010000050108010B010505050519
:10018000070508080808020202020A0A080804040F
:10019000040401010101010101010303030303033D
:1001A0000303040707070C0C0C0C0C0C0C0C0202CC
:1001B000020206060606060606060B0B0B0B0B0BC9
:1001C0000B0B010210202008081020401020408056
:1001D000020102010804020101020408102040800B
:1001E0008040201008040201800402018040201099
:1001F00008040201080402010102040810204080E2
:10020000010204081020408000000A0B02090C0DB6
:100210000E080703040100000000000000000000B9
:1002200000000000000000000000000000000000CE
:10023000000000001211100000000000000000008B
:1002400000000000000000000000000000000904A1
:1002500011241FBECFEFD1E2DEBFCDBF00E00CBF47
:1002600012E0A0E0B2E0ECE8FCE000E00BBF02C06E
:1002700007900D92A431B107D9F723E0A4E1B2E0D1
:1002800001C01D92A935B207E1F711E0C8E2D1E043
:1002900000E006C021970109802FFE010E943C0664
:1002A000C732D10780E00807A9F70E945C040C94CC
:1002B00044060C9400003FB7F89480911B02909183
:1002C0001C02A0911D02B0911E0226B5A89B05C07C
:1002D0002F3F19F00196A11DB11D3FBFBA2FA92FC5
:1002E000982F8827BC01CD01620F711D811D911DC2
:1002F00042E0660F771F881F991F4A95D1F708952E
:100300008F929F92AF92BF92CF92DF92EF92FF9225
:100310004B015C010E945B016B017C010E945B014F
:100320006C197D098E099F09683E7340810591050E
:10033000A8F321E0821A9108A108B10888EEC80E3E
:1003400083E0D81EE11CF11C81149104A104B104C6
:1003500029F7FF90EF90DF90CF90BF90AF909F90E4
:100360008F900895AF92BF92CF92DF92EF92FF925B
:100370000F931F93CF93DF936C017B018B01040FCD
:10038000151FEB015E01AE18BF08C017D10759F069
:100390006991D601ED91FC910190F081E02DC601AB
:1003A0001995892B79F7C501DF91CF911F910F9195
:1003B000FF90EF90DF90CF90BF90AF900895FC0139
:1003C000538D448D252F30E0842F90E0821B930BBA
:1003D000541710F0CF96089501970895FC01918D60
:1003E000828D981761F0A28DAE0FBF2FB11D5D9663
:1003F0008C91928D9F5F9F73928F90E008958FEF05
:100400009FEF0895FC01918D828D981731F0828DB8
:10041000E80FF11D858D90E008958FEF9FEF08950F
:10042000FC01918D228D892F90E0805C9F4F821B73
:1004300091098F73992708958FE192E00E9410022D
:1004400021E0892B09F420E0822F08958CEB92E0C3
:100450000E94100221E0892B09F420E0822F0895E8
:10046000FC01A48DA80FB92FB11DA35ABF4F2C9129
:10047000848D90E001968F739927848FA689B78920
:100480002C93A089B1898C91837080648C93938D17
:10049000848D981306C00288F389E02D80818F7DBA
:1004A00080830895EF92FF920F931F93CF93DF9372
:1004B000EC0181E0888F9B8D8C8D98131AC0E889A0
:1004C000F989808185FF15C09FB7F894EE89FF896F
:1004D0006083E889F98980818370806480839FBF0D
:1004E00081E090E0DF91CF911F910F91FF90EF900D
:1004F0000895F62E0B8D10E00F5F1F4F0F7311271D
:10050000E02E8C8D8E110CC00FB607FCFACFE88957
:10051000F989808185FFF5CFCE010E943002F1CFAD
:10052000EB8DEC0FFD2FF11DE35AFF4FF0829FB7CB
:10053000F8940B8FEA89FB8980818062CFCFCF93BB
:10054000DF93EC01888D8823B9F0AA89BB89E889FB
:10055000F9898C9185FD03C0808186FD0DC00FB6A1
:1005600007FCF7CF8C9185FFF2CF808185FFEDCF1F
:10057000CE010E943002E9CFDF91CF91089580E053
:1005800090E0892B29F00E94260281110E94000030
:1005900080E090E0892B29F00E941C0281110E94CA
:1005A000000080E090E0892B49F080E090E0892B0A
:1005B00029F00E94000081110E94000080E090E07C
:1005C000892B49F080E090E0892B29F00E940000FF
:1005D00081110C94000008958BB1599A61E070E08C
:1005E00080E090E00C9480011F920F920FB60F9262
:1005F00011242F933F938F939F93AF93BF93809139
:10060000170290911802A0911902B0911A0230912C
:10061000160223E0230F2D3758F50196A11DB11DB9
:10062000209316028093170290931802A093190248
:10063000B0931A0280911B0290911C02A0911D029E
:10064000B0911E020196A11DB11D80931B029093D3
:100650001C02A0931D02B0931E02BF91AF919F9107
:100660008F913F912F910F900FBE0F901F90189573
:1006700026E8230F0296A11DB11DD2CF1F920F9223
:100680000FB60F9211240BB60F922F933F934F93F7
:100690005F936F937F938F939F93AF93BF93EF93EA
:1006A000FF938FE192E00E943002FF91EF91BF91A2
:1006B000AF919F918F917F916F915F914F913F91FA
:1006C0002F910F900BBE0F900FBE0F901F9018959B
:1006D0001F920F920FB60F9211240BB60F922F9309
:1006E0008F939F93EF93FF93E0912F02F09130024D
:1006F0008081E0913502F091360282FD1DC090812B
:10070000809138028F5F8F7320913902821741F0F8
:10071000E0913802F0E0E15EFD4F958F8093380262
:10072000FF91EF919F918F912F910F900BBE0F90A2
:100730000FBE0F901F9018958081F2CF1F920F92DD
:100740000FB60F9211240BB60F922F933F934F9336
:100750005F936F937F938F939F93AF93BF93EF9329
:10076000FF938CEB92E00E943002FF91EF91BF91DA
:10077000AF919F918F917F916F915F914F913F9139
:100780002F910F900BBE0F900FBE0F901F901895DA
:100790001F920F920FB60F9211240BB60F922F9348
:1007A0008F939F93EF93FF93E091CC02F091CD0252
:1007B0008081E091D202F091D30282FD1DC0908130
:1007C0008091D5028F5F8F732091D602821741F0FE
:1007D000E091D502F0E0E454FD4F958F8093D5026F
:1007E000FF91EF919F918F912F910F900BBE0F90E2
:1007F0000FBE0F901F9018958081F2CF1F920F921D
:100800000FB60F92112459980F900FBE0F901F90A2
:100810001895EFE1F2E01382128248EE53E060E0B7
:1008200070E0448355836683778385E092E091830B
:1008300080832DEC30E0358724872CEC30E037873F
:10084000268728EC30E0318B208B29EC30E0338B8D
:10085000228B2AEC30E0358B248B2EEC30E0378B6A
:10086000268B118E128E138E148EECEBF2E0138217
:10087000128244835583668377839183808385ECDA
:1008800090E09587848784EC90E09787868780EC5A
:1008900090E0918B808B81EC90E0938B828B82EC4B
:1008A00090E0958B848B86EC90E0978B868B118EF5
:1008B000128E138E148E0895789484B5826084BD50
:1008C00084B5816084BD85B5826085BD85B5816054
:1008D00085BD80916E00816080936E0010928100D2
:1008E000809181008260809381008091810081608D
:1008F000809381008091800081608093800080914E
:10090000B10084608093B1008091B00081608093D9
:10091000B00080919100826080939100809191005D
:10092000816080939100809190008160809390001D
:100930008091A10082608093A1008091A1008160DC
:100940008093A1008091A00081608093A00080919D
:100950002101826080932101809121018160809337
:1009600021018091200181608093200180917A0093
:10097000846080937A0080917A00826080937A000C
:1009800080917A00816080937A0080917A008068FB
:1009900080937A001092C10064EF71E080E090E0F3
:1009A0000E9480014FEC51E0FA01649129E831E0A6
:1009B000F9018491882399F090E0880F991FFC0138
:1009C000E85BFE4FA591B491FC01EE59FE4F859175
:1009D00094918FB7F8949C91692B6C938FBFE5E14C
:1009E000F2E08491FA014491F9012491222309F45F
:1009F00032C0882311F181508231F8F4E82FF0E001
:100A00008827EA5FFA4F8F4F0C943C06D605DA052B
:100A10001805CE05D2051D05DD05E305E705ED0545
:100A2000F105F505FB05FF051D05030609060D0685
:100A3000809180008F7780938000E22FF0E0EE0FAE
:100A4000FF1FEE59FE4FA591B4918FB7F8949C917A
:100A5000492B4C938FBF519A5998E091CC02F09159
:100A6000CD0222E02083E091C802F091C9021082F9
:100A7000E091CA02F091CB028FEC80831092D402F5
:100A8000E091D002F091D10296E09083E091CE0205
:100A9000F091CF02808180618083E091CE02F0915D
:100AA000CF02808188608083E091CE02F091CF02F6
:100AB000808180688083E091CE02F091CF028081B6
:100AC0008F7D8083E0912F02F09130022083E091AE
:100AD0002B02F0912C0281E08083E0912D02F091B5
:100AE0002E0285E1808310923702E0913302F0916B
:100AF00034029083E0913102F09132028081806172
:100B00008083E0913102F09132028081886080839D
:100B1000E0913102F0913202808180688083E0911F
:100B20003102F091320280818F7D80838091C900F3
:100B300084648093C900D1E08CEB92E00E941002A3
:100B4000892BD1F08CEB92E00E94EE01C82F8091AE
:100B50000002882309F465C00E94EC028091C9005C
:100B600081608093C9006C2F8FE192E00E94520255
:100B700010920002D09315028FE192E00E941002C1
:100B8000892B49F08FE192E00E94EE01682F8CEBF7
:100B900092E00E9452020E94BF02CECF809180005C
:100BA0008F7D49CF80918000877F45CF84B58F7737
:100BB00084BD43CF84B58F7DFBCF8091B0008F770C
:100BC0008093B0003ACF8091B0008F7DF9CF8091B3
:100BD00090008F778093900030CF809190008F7D30
:100BE000F9CF80919000877FF5CF8091A0008F771B
:100BF0008093A00022CF8091A0008F7DF9CF8091BB
:100C0000A000877FF5CF809120018F77809320010E
:100C100014CF809120018F7DF9CF80912001877FB3
:100C2000F5CF809115028823C1F0C0931402109271
:100C300015020E94EC028091C9008E7F8093C9004A
:100C40006C2F8FE192E00E94520280911402813B4E
:100C500009F092CFD09300028FCFD09300020E9470
:100C6000EC028091C9008E7F8093C9006C2F8FE1C8
:100C700092E00E94520280CFEE0FFF1F881F8BBFB1
:0C0C80000790F691E02D1994F894FFCF36
:100C8C0001000000005202B201DF019F021002EECF
:040C9C00010202004F
:00000001FF
