:100000000C9435000C945D000C945D000C945D0024
:100010000C945D000C945D000C945D000C945D00EC
:100020000C945D000C945D000C945D000C945D00DC
:100030000C945D000C945D000C945D000C945D00CC
:100040000C941B020C945D000C94E9010C94C30108
:100050000C9465020C945D000C945D000C945D00A2
:100060000C945D000C945D00770311241FBECFEF4C
:10007000D8E0DEBFCDBF11E0A0E0B1E0E8E5F7E0F9
:1000800002C005900D92AE31B107D9F721E0AEE183
:10009000B1E001C01D92A43CB207E1F710E0C5E356
:1000A000D0E004C02197FE010E94A403C433D1070D
:1000B000C9F70E9470020C94AA030C940000AF923E
:1000C000BF92CF92DF92EF92FF920F931F93CF9345
:1000D000DF936C017B018B01040F151FEB015E01A7
:1000E000AE18BF08C017D10759F06991D601ED913C
:1000F000FC910190F081E02DC6010995892B79F7DB
:10010000C501DF91CF911F910F91FF90EF90DF908C
:10011000CF90BF90AF900895FC01538D448D252F53
:1001200030E0842F90E0821B930B541710F0CF9691
:10013000089501970895FC01918D828D981761F0C3
:10014000A28DAE0FBF2FB11D5D968C91928D9F5FDA
:100150009F73928F90E008958FEF9FEF0895FC01B9
:10016000918D828D981731F0828DE80FF11D858D6C
:1001700090E008958FEF9FEF0895FC01918D228DFF
:10018000892F90E0805C9F4F821B91098F73992784
:10019000089587E291E00E94BD0021E0892B09F4D7
:1001A00020E0822F089580E090E0892B29F00E94C2
:1001B000C90081110C9400000895FC01A48DA80FC2
:1001C000B92FB11DA35ABF4F2C91848D90E0019699
:1001D0008F739927848FA689B7892C93A089B189B9
:1001E0008C91837080648C93938D848D981306C05A
:1001F0000288F389E02D80818F7D80830895EF92BE
:10020000FF920F931F93CF93DF93EC0181E0888FD0
:100210009B8D8C8D98131AC0E889F989808185FFA0
:1002200015C09FB7F894EE89FF896083E889F98942
:1002300080818370806480839FBF81E090E0DF9144
:10024000CF911F910F91FF90EF900895F62E0B8D97
:1002500010E00F5F1F4F0F731127E02E8C8D8E1152
:100260000CC00FB607FCFACFE889F989808185FFB9
:10027000F5CFCE010E94DD00F1CFEB8DEC0FFD2F0D
:10028000F11DE35AFF4FF0829FB7F8940B8FEA8974
:10029000FB8980818062CFCFCF93DF93EC01888D83
:1002A0008823B9F0AA89BB89E889F9898C9185FDF1
:1002B00003C0808186FD0DC00FB607FCF7CF8C917F
:1002C00085FFF2CF808185FFEDCFCE010E94DD005A
:1002D000E9CFDF91CF9108953FB7F8948091230142
:1002E00090912401A0912501B091260126B5A89BEB
:1002F00005C02F3F19F00196A11DB11D3FBFBA2FB8
:10030000A92F982F8827BC01CD01620F711D811D77
:10031000911D42E0660F771F881F991F4A95D1F7FC
:1003200008958F929F92AF92BF92CF92DF92EF92F9
:10033000FF924B015C010E946C016B017C010E94E9
:100340006C016C197D098E099F09683E7340810517
:100350009105A8F321E0821A9108A108B10888EE5E
:10036000C80E83E0D81EE11CF11C81149104A10485
:10037000B10429F7FF90EF90DF90CF90BF90AF903E
:100380009F908F9008951F920F920FB60F92112495
:100390002F933F934F935F936F937F938F939F938D
:1003A000AF93BF93EF93FF9387E291E00E94DD004C
:1003B000FF91EF91BF91AF919F918F917F916F913D
:1003C0005F914F913F912F910F900FBE0F901F9013
:1003D00018951F920F920FB60F9211242F938F939F
:1003E0009F93EF93FF93E0913701F0913801808163
:1003F000E0913D01F0913E0182FD1BC09081809112
:1004000040018F5F8F7320914101821741F0E0918D
:100410004001F0E0E95DFE4F958F80934001FF9130
:10042000EF919F918F912F910F900FBE0F901F9082
:1004300018958081F4CF1F920F920FB60F9211245E
:100440002F933F938F939F93AF93BF9380911F01FF
:1004500090912001A0912101B091220130911E01C3
:1004600023E0230F2D3758F50196A11DB11D2093D0
:100470001E0180931F0190932001A0932101B0934E
:1004800022018091230190912401A0912501B09136
:1004900026010196A11DB11D809323019093240193
:1004A000A0932501B0932601BF91AF919F918F91A9
:1004B0003F912F910F900FBE0F901F90189526E837
:1004C000230F0296A11DB11DD2CF1F920F920FB61E
:1004D0000F9211245A980F900FBE0F901F901895ED
:1004E000789484B5826084BD84B5816084BD85B50F
:1004F000826085BD85B5816085BD80916E0081601B
:1005000080936E00109281008091810082608093C0
:1005100081008091810081608093810080918000C2
:100520008160809380008091B10084608093B100ED
:100530008091B00081608093B00080917A008460E7
:1005400080937A0080917A00826080937A00809113
:100550007A00816080937A0080917A00806880932D
:100560007A001092C10064E670E080E090E00E94A2
:10057000910187E08AB988EF8BB9E0913701F0915A
:10058000380182E08083E0913301F09134011082E0
:10059000E0913501F09136018AE8808310923F01A5
:1005A000E0913B01F0913C0186E08083E0913901CC
:1005B000F0913A01808180618083E0913901F0916E
:1005C0003A01808188608083E0913901F0913A019D
:1005D000808180688083E0913901F0913A018081C7
:1005E0008F7D80838091C10084648093C10080915D
:1005F000C00081608093C00080E091E07C01E094C5
:10060000F094E8E4BE2EF0E0CF2EF0E0DF2E78E0AC
:10061000A72E87E291E00E94BD00892B09F451C00A
:1006200087E291E00E949B008F3609F04AC08091DA
:10063000C0008E7F8093C0005A9A61E070E080E035
:1006400090E00E949101E0E0F1E08FEF9FEF2191B7
:10065000922728E030E0AC01880F991F57FF04C0B3
:1006600041E2842740E1942721503109A1F721E09C
:10067000EA30F20761F790930A0180930B01D0E012
:10068000C0E000E011E0F80161918F01C230D105B6
:1006900021F5C7018E0F9F1F892B09F46A2587E278
:1006A00091E00E94FF00F1E00C301F0761F72196F6
:1006B000C530D10531F768EC70E080E090E00E9431
:1006C0009101C114D10409F4A4CF0E94C900882368
:1006D00009F49FCF0E9400009ACFC330D105F9F6EC
:1006E000C7018E0F9F1F0397D1F66B25D8CFE7E286
:1006F000F1E01382128288EE93E0A0E0B0E0848300
:100700009583A683B78380E191E09183808385EC14
:1007100090E09587848784EC90E09787868780ECCB
:1007200090E0918B808B81EC90E0938B828B82ECBC
:1007300090E0958B848B86EC90E0978B868B118E66
:10074000128E138E148E0895EE0FFF1F0590F491F4
:08075000E02D0994F894FFCF9D
:1007580012141511121512111113101000000000B7
:0E076800FF005F008C004C01BD009B00AF0045
:00000001FF
