:020000040000FA
:100000000C9458000C9480000C9480000C94800098
:100010000C9480000C9480000C9480000C94800060
:100020000C9480000C9480000C9480000C94800050
:100030000C9480000C9480000C9480000C94800040
:100040000C948B050C9480000C94FB050C94D50546
:100050000C944C070C9480000C9480000C9480004D
:100060000C942D060C948000000000002500280050
:100070002B00040404040404040402020202020229
:10008000030303030303010204081020408001025C
:1000900004081020010204081020000000080002DB
:1000A00001000003040700000000000000005707E3
:1000B00011241FBECFEFD8E0DEBFCDBF11E0A0E01E
:1000C000B1E0E0EEF6E102C005900D92A432B10776
:1000D000D9F722E0A4E2B1E001C01D92A73BB2072C
:1000E000E1F710E0C8E5D0E004C02197FE010E94CE
:1000F000680BC735D107C9F70E94AC070C946E0B8B
:100100000C94000090E0FC01E656FF4F2491FC01A6
:10011000EA57FF4F3491FC01EE58FF4FE491EE2374
:10012000C9F0222339F0233001F1A8F4213019F16C
:10013000223029F1F0E0EE0FFF1FE859FF4FA591A3
:10014000B4918FB7F894EC91611126C030953E239D
:100150003C938FBF08952730A9F02830C9F0243090
:1001600049F7809180008F7D03C0809180008F7758
:1001700080938000DFCF84B58F7784BDDBCF84B5DB
:100180008F7DFBCF8091B0008F778093B000D2CF6E
:100190008091B0008F7DF9CF3E2BDACF3FB7F89436
:1001A00080917C0190917D01A0917E01B0917F01B1
:1001B00026B5A89B05C02F3F19F00196A11DB11DC2
:1001C0003FBFBA2FA92F982F8827BC01CD01620FFE
:1001D000711D811D911D42E0660F771F881F991FB9
:1001E0004A95D1F708958F929F92AF92BF92CF9286
:1001F000DF92EF92FF924B015C010E94CE006B01F7
:100200007C010E94CE006C197D098E099F09683E11
:10021000734081059105A8F321E0821A9108A10895
:10022000B10888EEC80E83E0D81EE11CF11C8114D1
:100230009104A104B10429F7FF90EF90DF90CF90D3
:10024000BF90AF909F908F9008952FB7F8946091D2
:1002500078017091790180917A0190917B012FBF93
:10026000089508950895AF92BF92CF92DF92EF92D2
:10027000FF920F931F93CF93DF936C017B018B0150
:10028000040F151FEB015E01AE18BF08C017D107A0
:1002900059F06991D601ED91FC910190F081E02D2A
:1002A000C6010995892B79F7C501DF91CF911F917F
:1002B0000F91FF90EF90DF90CF90BF90AF90089597
:1002C000FC01538D448D252F30E0842F90E0821B5C
:1002D000930B541710F0CF96089501970895FC01E1
:1002E000918D828D981761F0A28DAE0FBF2FB11D39
:1002F0005D968C91928D9F5F9F73928F90E0089591
:100300008FEF9FEF0895FC01918D828D981731F04A
:10031000828DE80FF11D858D90E008958FEF9FEF9E
:100320000895FC01918D228D892F90E0805C9F4F74
:10033000821B91098F739927089582EF91E00E94A3
:10034000910121E0892B09F420E0822F089580E0BB
:1003500090E0892B29F00E949D0181110C940000EE
:100360000895FC01A48DA80FB92FB11DA35ABF4F4A
:100370002C91848D90E001968F739927848FA689A4
:10038000B7892C93A089B1898C91837080648C93F8
:10039000938D848D981306C00288F389E02D8081A7
:1003A0008F7D80830895EF92FF920F931F93CF93D9
:1003B000DF93EC0181E0888F9B8D8C8D98131AC0A0
:1003C000E889F989808185FF15C09FB7F894EE8987
:1003D000FF896083E889F9898081837080648083E4
:1003E0009FBF81E090E0DF91CF911F910F91FF902F
:1003F000EF900895F62E0B8D10E00F5F1F4F0F73D7
:100400001127E02E8C8D8E110CC00FB607FCFACF91
:10041000E889F989808185FFF5CFCE010E94B1017D
:10042000F1CFEB8DEC0FFD2FF11DE35AFF4FF08262
:100430009FB7F8940B8FEA89FB8980818062CFCFC8
:10044000CF93DF93EC01888D8823B9F0AA89BB890B
:10045000E889F9898C9185FD03C0808186FD0DC0F6
:100460000FB607FCF7CF8C9185FFF2CF808185FF17
:10047000EDCFCE010E94B101E9CFDF91CF91089578
:1004800020914501260F3327331F21323105ECF42B
:100490002091C801FC0190E080E0243069F082E006
:1004A0000895A09145012191AC014B5D5E4FA40FD1
:1004B000B52FB11D2C930196861798F380914501B5
:1004C000680F6093450180E0089581E008951092DF
:1004D000C80181E08093C7011092A20161E082E12E
:1004E0000E94820061E083E10E948200E9EBF0E07B
:1004F00080818E7F808380818D7F808388E480935C
:10050000B80085E48093BC000895CF93DF9391E019
:10051000909324018823B9F0C091B800D091BA001B
:100520008091BC008A7B8093BC0060E082E10E94E5
:10053000820060E083E10E9482000E946702D09303
:10054000BA00C093B800DF91CF910895CF92DF92A7
:10055000EF92FF920F931F93CF93DF93A0919B0293
:10056000B0919C0291E09093F10190E49093F0019E
:100570001092EF011092EE01ED91FC911197019014
:10058000F081E02D682FCD010995D091EE0181E039
:10059000D13208F09CC0C091F0010E94CE006B01E6
:1005A0007C018091C80181116CC082E08093C801F8
:1005B00081E08093C7018FEF8093C6011092C5013F
:1005C000D093C401AEECB1E0E4EAF1E080E0D813EE
:1005D00093C01092A3018091A301CC0FC82BC093AC
:1005E000A3018091A201813009F08AC01092A2017A
:1005F0000E94CE006B017C018091A3018093BB001F
:100600008091CA019091CB01A091CC01B091CD0114
:10061000892B8A2B8B2BA1F00E94CE000091CA015E
:100620001091CB012091CC013091CD016C197D0945
:100630008E099F09061717072807390708F442C0D3
:100640008091BC0083FDD8CF85EC8093BC000E94D4
:10065000CE006B017C018091C801823009F452C048
:100660008091C6018F3F09F46FC08091C60180322E
:1006700009F46CC08091C601803309F469C084E03C
:1006800026C08091CA019091CB01A091CC01B0917C
:10069000CD01892B8A2B8B2B09F483CF0E94CE00AE
:1006A0000091CA011091CB012091CC013091CD0174
:1006B0006C197D098E099F09061717072807390746
:1006C00008F06FCF8091C9010E94850285E01092E9
:1006D000EF011092EE011092F1018823D9F181E827
:1006E0008093B50280E0DF91CF911F910F91FF9031
:1006F000EF90DF90CF9008959D9191938F5F67CF9A
:1007000085EEA3CF8091CA019091CB01A091CC013D
:10071000B091CD01892B8A2B8B2B09F49CCF0E94A1
:10072000CE000091CA011091CB012091CC013091F3
:10073000CD016C197D098E099F0906171707280737
:10074000390708F088CFBECF80E0C1CF82E0BFCFAD
:1007500083E0BDCF81E0C7CF0895E0918101809112
:100760008001E81730F4F0E0EE57FE4F808190E012
:1007700008958FEF9FEF08959091810180918001FE
:100780002FEF3FEF981748F4E92FF0E0EE57FE4FB8
:10079000208130E09F5F90938101C901089580918D
:1007A000800190918101891B990B0895CF92DF926E
:1007B000EF92FF920F931F93CF93DF937C01CB01B6
:1007C0008A012091F101222389F0EB016B01C40E13
:1007D000D51ECC15DD0569F06991D701ED91FC912D
:1007E0000190F081E02DC7010995F3CF642F0E949D
:1007F0004002C801DF91CF911F910F91FF90EF90C0
:10080000DF90CF900895CF93DF931F92CDB7DEB7DF
:1008100069832091F1012223F9F02091EE01203229
:1008200058F021E030E0FC013383228390E080E047
:100830000F90DF91CF9108958091EF01E82FF0E0C4
:10084000E253FE4F998190838F5F8093EF018093F5
:10085000EE0181E090E0ECCF61E0CE0101960E94D4
:100860004002F7CF90E080E008954F925F926F9240
:100870007F928F929F92AF92BF92CF92DF92EF9230
:10088000FF920F931F93CF93DF93182F092FC62E3C
:100890000E94CE004B015C018091C801811165C0AE
:1008A00081E08093C8018093C7019FEF9093C601B8
:1008B0001092C50192E09093C4018093A3018091AE
:1008C000A30180688093A3018091A201813009F087
:1008D000B3C01092A2010E94CE004B015C01809136
:1008E000A3018093BB008091CA019091CB01A0919C
:1008F000CC01B091CD01892B8A2B8B2BA1F00E94CA
:10090000CE004090CA015090CB016090CC01709015
:10091000CD01681979098A099B09461657066806A8
:10092000790608F443C08091BC0083FDD8CF85ECE4
:100930008093BC000E94CE004B015C018091C801F5
:10094000813009F47BC08091C501833008F098C0E4
:100950008091C501E4EAF1E0A2E8B1E090E09817E7
:1009600051F121912D939F5FFACF8091CA0190910F
:10097000CB01A091CC01B091CD01892B8A2B8B2B7F
:1009800009F48ACF0E94CE004090CA015090CB015A
:100990006090CC017090CD01681979098A099B0992
:1009A000461657066806790608F076CF8091C90189
:1009B0000E94850280E010928101809380010E9454
:1009C00025014B015C01D12CF12CE12C80919B0283
:1009D00090919C02DC01ED91FC910084F185E02D69
:1009E000099503970CF44EC0C12FD02F8E010D5FD7
:1009F0001F4F80919B0290919C02DC01ED91FC9134
:100A00000284F385E02D099589930C171D0789F75A
:100A10001092B50281E0DF91CF911F910F91FF906D
:100A2000EF90DF90CF90BF90AF909F908F907F908E
:100A30006F905F904F90089585EE7ACF8091CA01B4
:100A40009091CB01A091CC01B091CD01892B8A2B43
:100A50008B2B09F473CF0E94CE004090CA015090B6
:100A6000CB016090CC017090CD01681979098A0999
:100A70009B09461657066806790608F05FCF96CFA1
:100A800083E068CF0E942501681979098A099B09CA
:100A9000C616D706E806F90608F098CF82E88093D4
:100AA000B50280E0B8CF85ED8093BC008091CA018B
:100AB0009091CB01A091CC01B091CD010796A11DE1
:100AC000B11D23E0B695A795979587952A95D1F7FF
:100AD0002091BC0024FD03C01092C80108954091EC
:100AE000CA015091CB016091CC017091CD01452B91
:100AF000462B472B69F30097A105B10541F02AE287
:100B00002A95F1F700C00197A109B109E1CF8091C1
:100B1000C9010C9485021F920F920FB60F921124F7
:100B20002F933F938F939F93AF93BF9380917801BF
:100B300090917901A0917A01B0917B013091770178
:100B400023E0230F2D3758F50196A11DB11D2093E9
:100B500077018093780190937901A0937A01B09303
:100B60007B0180917C0190917D01A0917E01B091EB
:100B70007F010196A11DB11D80937C0190937D01A1
:100B8000A0937E01B0937F01BF91AF919F918F9110
:100B90003F912F910F900FBE0F901F90189526E850
:100BA000230F0296A11DB11DD2CF1F920F920FB637
:100BB0000F9211242F933F934F935F936F937F93E3
:100BC0008F939F93AF93BF93EF93FF9382EF91E047
:100BD0000E94B101FF91EF91BF91AF919F918F91D1
:100BE0007F916F915F914F913F912F910F900FBE29
:100BF0000F901F9018951F920F920FB60F9211240D
:100C00002F938F939F93EF93FF93E0910202F091C4
:100C100003028081E0910802F091090282FD1BC06D
:100C2000908180910B028F5F8F7320910C0282174D
:100C300041F0E0910B02F0E0EE50FE4F958F809373
:100C40000B02FF91EF919F918F912F910F900FBE0B
:100C50000F901F9018958081F4CF1F920F920FB6BE
:100C60000F9211242F933F934F935F936F937F9332
:100C70008F939F93AF93BF93EF93FF938091B900AE
:100C8000887F803609F44AC0F0F5883209F4A7C09D
:100C900018F5803109F49BC0B8F4882309F4F9C031
:100CA000883009F494C0FF91EF91BF91AF919F916B
:100CB0008F917F916F915F914F913F912F910F9005
:100CC0000FBE0F901F901895883109F488C08032AC
:100CD00051F78093C60114C0803409F49DC040F4DC
:100CE0008033B9F38833F9F68093C60185ECB0C040
:100CF000803509F485C0883509F496C0883499F6A2
:100D00000E945305D0CF883909F48CC038F5883754
:100D100029F050F4883611F0803729F683E080936B
:100D2000C8011092670157C0883809F47BC0803928
:100D300019F0803809F0B7CF80916701803208F050
:100D400071C0E091670181E08E0F8093670180910F
:100D5000BB00F0E0E95BFE4F80833DC0803B39F093
:100D6000E0F4803A09F479C0883A09F09CCF84E035
:100D70008093C8011092460110924501E0916A01EA
:100D8000F0916B0109958091450181110FC081E0BF
:100D9000809345011092250109C0803C09F4A6CF3B
:100DA000883C09F4A3CF883B09F07DCFE091460150
:100DB00081E08E0F80934601F0E0EB5DFE4F808175
:100DC0008093BB00909146018091450129C080919C
:100DD000A3018093BB0085EC8093BC0064CF90910D
:100DE000C5018091C401981758F5E091C50181E0D3
:100DF0008E0F8093C501F0E0EC55FE4F8081E9CF66
:100E0000E091C50181E08E0F8093C5018091BB0008
:100E1000F0E0EC55FE4F80839091C5018091C401B4
:100E20009817C8F285E8D8CFE091C50181E08E0F10
:100E30008093C5018091BB00F0E0EC55FE4F8083AC
:100E40008091C70181115CCF81E08093A20184EA87
:100E50008093BC001092C80126CF85EC8093BC0023
:100E60001092C80180916701803230F4E0916701EF
:100E7000F0E0E95BFE4F10826091670170E0E09165
:100E80006801F091690187E491E00995109267018A
:100E90000ACF1092C60134CF1F920F920FB60F9255
:100EA00011245A980F900FBE0F901F901895E2EFE3
:100EB000F1E01382128288EE93E0A0E0B0E0848338
:100EC0009583A683B78324E031E03183208325EC2A
:100ED00030E03587248724EC30E03787268720EC04
:100EE00030E0318B208B21EC30E0338B228B22ECF5
:100EF00030E0358B248B26EC30E0378B268B118E3F
:100F0000128E138E148EEFE8F2E013821282848325
:100F10009583A683B78386E191E091838083EBE993
:100F2000F2E01282138214821582168217821086D2
:100F300011861286108E178A168A158A13861486D1
:100F4000158616861786108A118A128A138A148AC1
:100F5000128E118E138E0895CF93DF9300D01F92BF
:100F6000CDB7DEB7789484B5826084BD84B58160E6
:100F700084BD85B5826085BD85B5816085BD809164
:100F80006E00816080936E001092810080918100DC
:100F900082608093810080918100816080938100D4
:100FA000809180008160809380008091B100846096
:100FB0008093B1008091B00081608093B0008091F7
:100FC0007A00846080937A0080917A0082608093B6
:100FD0007A0080917A00816080937A0080917A0013
:100FE000806880937A001092C10064EF71E080E025
:100FF00090E00E94F30087E08AB988EF8BB9E09116
:101000000202F091030282E08083E091FE01F09100
:10101000FF011082E0910002F09101028AE88083D2
:1010200010920A02E0910602F091070286E08083A6
:10103000E0910402F0910502808180618083E0915B
:101040000402F0910502808188608083E0910402AF
:10105000F0910502808180688083E0910402F09124
:10106000050280818F7D80838091C100846480939C
:10107000C1008091C00081608093C0008FE892E041
:1010800090939C0280939B021092810110928001A8
:101090001092EF011092EE010E94670281E391E04D
:1010A00090936B0180936A0182E391E090936901D0
:1010B000809368018EEF0E94A60261E070E080E0FC
:1010C00090E00E94F300A5E7EA2EA1E0FA2EB7E730
:1010D000CB2EB1E0DB2E0CE611E0009510957724C5
:1010E000739466246394F0E65F2E82EF91E00E9491
:1010F0009101892B09F46CC182EF91E00E946F018C
:101100008B3709F065C18091C0008E7F8093C0004D
:101110005A9A61E070E080E090E00E94F3008BE07A
:1011200080936C0183EF0E94A6020E9425016093C8
:10113000A1027093A2028093A3029093A4026092F2
:10114000A5028091A5028130F1F70E9425018090CF
:10115000A1029090A202A090A302B090A402DC0190
:10116000CB0188199909AA09BB098B309105A10502
:10117000B10538F32091B602233099F086319105FC
:10118000A105B105F0F2213061F08B329105A10586
:10119000B105B8F2223029F085359105A105B105D8
:1011A00080F26AE5CE0101960E943504882309F495
:1011B00092C09981892F28E031E387FF03C0880F0F
:1011C000832701C0880F2150C1F72A81822738E088
:1011D00041E387FF03C0880F842701C0880F315087
:1011E000C1F73B81831719F085E88093B502892FF9
:1011F00090E0982F8827820F911D8C7F9093B302E7
:101200008093B2021092A50223702093B40285EF5E
:101210000E94A6020E9425016093A1027093A2027F
:101220008093A3029093A40282E08093A502809110
:10123000A5028230F1F70E9425018090A1029090D2
:10124000A202A090A302B090A402DC01CB018819F5
:101250009909AA09BB0984309105A105B10538F3A4
:101260002091B602213091F089309105A105B10598
:10127000F0F2223059F08F309105A105B105B8F296
:10128000233021F04D97A105B10588F26EE1CE0122
:1012900001960E943504882309F12A81898190E012
:1012A000982F8827820F911D8C7F9093B102809395
:1012B000B0021092A50223702093B4021092B502DE
:1012C0000E94250160939D0270939E0280939F026D
:1012D0009093A00203C082E88093B5026091B202AD
:1012E0007091B30290E080E00E946D0A22E538EB35
:1012F0004FE25BE30E94FB0A26E636E64BE352E44C
:101300000E94000A60936D0170936E0180936F01DB
:10131000909370016091B0027091B10290E080E012
:101320000E946D0A20E030E04AEF5AE30E94FB0A77
:1013300020E030E040EC50E40E94000A609371012C
:10134000709372018093730190937401ECE6F1E065
:1013500090E080E02191922728E030E0AC01880FF6
:10136000991F57FF04C049E8842745E0942721507E
:101370003109A1F7EE16FF0669F790937501809386
:101380007601B12CA12C8CE6882E81E0982EF401F8
:1013900061914F01F2E0AF16B10439F5C801880D33
:1013A000991D892B09F4672582EF91E00E94D301F2
:1013B000C814D90461F78FEFA81AB80AE5E0AE1691
:1013C000B10409F768EC70E080E090E00E94F3005F
:1013D00080E090E0892B09F488CE0E949D0188234B
:1013E00009F481CE0E9400007ACE43E0A416B10435
:1013F000D9F6C801880D991D0397B1F66525D4CF9C
:101400005058BB27AA270E94180A0C94C10A0E94B0
:10141000B30A38F00E94BA0A20F039F49F3F19F459
:1014200026F40C94B00A0EF4E095E7FB0C94AA0A9B
:10143000E92F0E94D20A58F3BA176207730784078C
:10144000950720F079F4A6F50C94F40A0EF4E095D3
:101450000B2EBA2FA02D0B01B90190010C01CA016E
:10146000A0011124FF27591B99F0593F50F4503E19
:1014700068F11A16F040A22F232F342F4427585F0B
:10148000F3CF469537952795A795F0405395C9F723
:101490007EF41F16BA0B620B730B840BBAF09150DB
:1014A000A1F0FF0FBB1F661F771F881FC2F70EC07A
:1014B000BA0F621F731F841F48F48795779567954D
:1014C000B795F7959E3F08F0B0CF9395880F08F039
:1014D0009927EE0F979587950895E89409C097FB93
:1014E0003EF490958095709561957F4F8F4F9F4FFB
:1014F0009923A9F0F92F96E9BB279395F69587953F
:1015000077956795B795F111F8CFFAF4BB0F11F401
:1015100060FF1BC06F5F7F4F8F4F9F4F16C08823A8
:1015200011F096E911C0772321F09EE8872F762FDE
:1015300005C0662371F096E8862F70E060E02AF01F
:101540009A95660F771F881FDAF7880F969587950B
:1015500097F9089597F99F6780E870E060E0089533
:101560009FEF80EC089500240A94161617061806BB
:101570000906089500240A94121613061406050697
:101580000895092E0394000C11F4882352F0BB0F28
:1015900040F4BF2B11F460FF04C06F5F7F4F8F4F8B
:1015A0009F4F089557FD9058440F551F59F05F3FC6
:1015B00071F04795880F97FB991F61F09F3F79F075
:1015C00087950895121613061406551FF2CF4695F7
:1015D000F1DF08C0161617061806991FF1CF869579
:1015E0007105610508940895E894BB27662777275D
:1015F000CB0197F908950E940E0B0C94C10A0E942A
:10160000B30A38F00E94BA0A20F0952311F00C9426
:10161000AA0A0C94B00A11240C94F50A0E94D20A6A
:1016200070F3959FC1F3950F50E0551F629FF00135
:10163000729FBB27F00DB11D639FAA27F00DB11D4E
:10164000AA1F649F6627B00DA11D661F829F2227D7
:10165000B00DA11D621F739FB00DA11D621F839F5E
:10166000A00D611D221F749F3327A00D611D231F34
:10167000849F600D211D822F762F6A2F11249F5782
:1016800050409AF0F1F088234AF0EE0FFF1FBB1F85
:10169000661F771F881F91505040A9F79E3F510544
:1016A00080F00C94AA0A0C94F50A5F3FE4F3983E8C
:1016B000D4F3869577956795B795F795E7959F5FEE
:1016C000C1F7FE2B880F911D9695879597F9089580
:1016D000EE0FFF1F0590F491E02D0994F894FFCFD1
:1016E00000000000D30133016001200291016F016D
:1016F0008301000000000304D6033204AC03CF03CF
:04170000BC03AD0376
:107E0000112484B714BE81FFF0D085E080938100F7
:107E100082E08093C00088E18093C10086E0809377
:107E2000C20080E18093C4008EE0C9D0259A86E02C
:107E300020E33CEF91E0309385002093840096BBD3
:107E4000B09BFECF1D9AA8958150A9F7CC24DD24C4
:107E500088248394B5E0AB2EA1E19A2EF3E0BF2EE7
:107E6000A2D0813461F49FD0082FAFD0023811F036
:107E7000013811F484E001C083E08DD089C08234E0
:107E800011F484E103C0853419F485E0A6D080C0E4
:107E9000853579F488D0E82EFF2485D0082F10E0AE
:107EA000102F00270E291F29000F111F8ED06801E7
:107EB0006FC0863521F484E090D080E0DECF843638
:107EC00009F040C070D06FD0082F6DD080E0C81688
:107ED00080E7D80618F4F601B7BEE895C0E0D1E017
:107EE00062D089930C17E1F7F0E0CF16F0E7DF06D8
:107EF00018F0F601B7BEE89568D007B600FCFDCFD4
:107F0000A601A0E0B1E02C9130E011968C91119780
:107F100090E0982F8827822B932B1296FA010C0160
:107F200087BEE89511244E5F5F4FF1E0A038BF0790
:107F300051F7F601A7BEE89507B600FCFDCF97BE46
:107F4000E89526C08437B1F42ED02DD0F82E2BD052
:107F50003CD0F601EF2C8F010F5F1F4F84911BD097
:107F6000EA94F801C1F70894C11CD11CFA94CF0C13
:107F7000D11C0EC0853739F428D08EE10CD085E9AC
:107F80000AD08FE07ACF813511F488E018D01DD067
:107F900080E101D065CF982F8091C00085FFFCCF94
:107FA0009093C60008958091C00087FFFCCF809118
:107FB000C00084FD01C0A8958091C6000895E0E648
:107FC000F0E098E1908380830895EDDF803219F02E
:107FD00088E0F5DFFFCF84E1DECF1F93182FE3DFCA
:107FE0001150E9F7F2DF1F91089580E0E8DFEE27F6
:047FF000FF270994CA
:027FFE00040479
:00000001FF
