:020000040000FA
:100000000C9435000C945D000C945D000C945D0024
:100010000C945D000C945D000C945D000C945D00EC
:100020000C945D000C945D000C945D000C945D00DC
:100030000C945D000C945D000C945D000C945D00CC
:100040000C94C3010C945D000C9433020C940D02CB
:100050000C9465020C945D000C945D000C945D00A2
:100060000C945D000C945D00770311241FBECFEF4C
:10007000D8E0DEBFCDBF11E0A0E0B1E0E8E5F7E0F9
:1000800002C005900D92AE31B107D9F721E0AEE183
:10009000B1E001C01D92A43CB207E1F710E0C5E356
:1000A000D0E004C02197FE010E94A403C433D1070D
:1000B000C9F70E9470020C94AA030C9400003FB789
:1000C000F8948091C0019091C101A091C201B091BA
:1000D000C30126B5A89B05C02F3F19F00196A11DAD
:1000E000B11D3FBFBA2FA92F982F8827BC01CD0182
:1000F000620F711D811D911D42E0660F771F881FE1
:10010000991F4A95D1F708958F929F92AF92BF920F
:10011000CF92DF92EF92FF924B015C010E945F0051
:100120006B017C010E945F006C197D098E099F099B
:10013000683E734081059105A8F321E0821A910879
:10014000A108B10888EEC80E83E0D81EE11CF11C9E
:1001500081149104A104B10429F7FF90EF90DF907E
:10016000CF90BF90AF909F908F900895AF92BF9225
:10017000CF92DF92EF92FF920F931F93CF93DF9373
:100180006C017B018B01040F151FEB015E01AE18A2
:10019000BF08C017D10759F06991D601ED91FC91C4
:1001A0000190F081E02DC6010995892B79F7C501F1
:1001B000DF91CF911F910F91FF90EF90DF90CF9043
:1001C000BF90AF900895FC01538D448D252F30E0F2
:1001D000842F90E0821B930B541710F0CF96089554
:1001E00001970895FC01918D828D981761F0A28D81
:1001F000AE0FBF2FB11D5D968C91928D9F5F9F7347
:10020000928F90E008958FEF9FEF0895FC01918DFC
:10021000828D981731F0828DE80FF11D858D90E069
:1002200008958FEF9FEF0895FC01918D228D892F06
:1002300090E0805C9F4F821B91098F7399270895EE
:100240008EE191E00E94140121E0892B09F420E065
:10025000822F089580E090E0892B29F00E942001F0
:1002600081110C9400000895FC01A48DA80FB92FF2
:10027000B11DA35ABF4F2C91848D90E001968F73CE
:100280009927848FA689B7892C93A089B1898C91ED
:10029000837080648C93938D848D981306C002883C
:1002A000F389E02D80818F7D80830895EF92FF9206
:1002B0000F931F93CF93DF93EC0181E0888F9B8D89
:1002C0008C8D98131AC0E889F989808185FF15C043
:1002D0009FB7F894EE89FF896083E889F989808166
:1002E0008370806480839FBF81E090E0DF91CF9135
:1002F0001F910F91FF90EF900895F62E0B8D10E057
:100300000F5F1F4F0F731127E02E8C8D8E110CC0C5
:100310000FB607FCFACFE889F989808185FFF5CF10
:10032000CE010E943401F1CFEB8DEC0FFD2FF11DBA
:10033000E35AFF4FF0829FB7F8940B8FEA89FB894D
:1003400080818062CFCFCF93DF93EC01888D8823AB
:10035000B9F0AA89BB89E889F9898C9185FD03C028
:10036000808186FD0DC00FB607FCF7CF8C9185FF0D
:10037000F2CF808185FFEDCFCE010E943401E9CF1D
:10038000DF91CF9108951F920F920FB60F92112413
:100390002F933F938F939F93AF93BF938091BC0113
:1003A0009091BD01A091BE01B091BF013091BB0100
:1003B00023E0230F2D3758F50196A11DB11D209381
:1003C000BB018093BC019093BD01A093BE01B0938B
:1003D000BF018091C0019091C101A091C201B09173
:1003E000C3010196A11DB11D8093C0019093C1016D
:1003F000A093C201B093C301BF91AF919F918F9120
:100400003F912F910F900FBE0F901F90189526E8E7
:10041000230F0296A11DB11DD2CF1F920F920FB6CE
:100420000F9211242F933F934F935F936F937F937A
:100430008F939F93AF93BF93EF93FF938EE191E0E0
:100440000E943401FF91EF91BF91AF919F918F91E5
:100450007F916F915F914F913F912F910F900FBEC0
:100460000F901F9018951F920F920FB60F921124A4
:100470002F938F939F93EF93FF93E0912E01F09131
:100480002F018081E0913401F091350182FD1BC084
:100490009081809137018F5F8F732091380182178F
:1004A00041F0E0913701F0E0E25EFE4F958F8093DE
:1004B0003701FF91EF919F918F912F910F900FBE78
:1004C0000F901F9018958081F4CF1F920F920FB656
:1004D0000F9211245A980F900FBE0F901F901895ED
:1004E000789484B5826084BD84B5816084BD85B50F
:1004F000826085BD85B5816085BD80916E0081601B
:1005000080936E00109281008091810082608093C0
:1005100081008091810081608093810080918000C2
:100520008160809380008091B10084608093B100ED
:100530008091B00081608093B00080917A008460E7
:1005400080937A0080917A00826080937A00809113
:100550007A00816080937A0080917A00806880932D
:100560007A001092C10064E670E080E090E00E94A2
:10057000840087E08AB988EF8BB9E0912E01F09171
:100580002F0182E08083E0912A01F0912B011082FB
:10059000E0912C01F0912D018AE8808310923601C0
:1005A000E0913201F091330186E08083E0913001E7
:1005B000F0913101808180618083E0913001F09180
:1005C0003101808188608083E0913001F0913101B8
:1005D000808180688083E0913001F09131018081D9
:1005E0008F7D80838091C10084648093C10080915D
:1005F000C00081608093C00080E091E07C01E094C5
:10060000F094E8E4BE2EF0E0CF2EF0E0DF2E78E0AC
:10061000A72E8EE191E00E941401892B09F451C0AC
:100620008EE191E00E94F2008F3609F04AC080917D
:10063000C0008E7F8093C0005A9A61E070E080E035
:1006400090E00E948400E0E0F1E08FEF9FEF2191C5
:10065000922728E030E0AC01880F991F57FF04C0B3
:1006600041E2842740E1942721503109A1F721E09C
:10067000EA30F20761F790930A0180930B01D0E012
:10068000C0E000E011E0F80161918F01C230D105B6
:1006900021F5C7018E0F9F1F892B09F46A258EE172
:1006A00091E00E945601F1E00C301F0761F721969E
:1006B000C530D10531F768EC70E080E090E00E9431
:1006C0008400C114D10409F4A4CF0E94200188231E
:1006D00009F49FCF0E9400009ACFC330D105F9F6EC
:1006E000C7018E0F9F1F0397D1F66B25D8CFEEE180
:1006F000F1E01382128288EE93E0A0E0B0E0848300
:100700009583A683B78380E191E09183808385EC14
:1007100090E09587848784EC90E09787868780ECCB
:1007200090E0918B808B81EC90E0938B828B82ECBC
:1007300090E0958B848B86EC90E0978B868B118E66
:10074000128E138E148E0895EE0FFF1F0590F491F4
:10075000E02D0994F894FFCF1214151112151211FF
:1007600011131010000000005601B600E300A301B1
:060770001401F200060175
:107E0000112484B714BE81FFF0D085E080938100F7
:107E100082E08093C00088E18093C10086E0809377
:107E2000C20080E18093C4008EE0C9D0259A86E02C
:107E300020E33CEF91E0309385002093840096BBD3
:107E4000B09BFECF1D9AA8958150A9F7CC24DD24C4
:107E500088248394B5E0AB2EA1E19A2EF3E0BF2EE7
:107E6000A2D0813461F49FD0082FAFD0023811F036
:107E7000013811F484E001C083E08DD089C08234E0
:107E800011F484E103C0853419F485E0A6D080C0E4
:107E9000853579F488D0E82EFF2485D0082F10E0AE
:107EA000102F00270E291F29000F111F8ED06801E7
:107EB0006FC0863521F484E090D080E0DECF843638
:107EC00009F040C070D06FD0082F6DD080E0C81688
:107ED00080E7D80618F4F601B7BEE895C0E0D1E017
:107EE00062D089930C17E1F7F0E0CF16F0E7DF06D8
:107EF00018F0F601B7BEE89568D007B600FCFDCFD4
:107F0000A601A0E0B1E02C9130E011968C91119780
:107F100090E0982F8827822B932B1296FA010C0160
:107F200087BEE89511244E5F5F4FF1E0A038BF0790
:107F300051F7F601A7BEE89507B600FCFDCF97BE46
:107F4000E89526C08437B1F42ED02DD0F82E2BD052
:107F50003CD0F601EF2C8F010F5F1F4F84911BD097
:107F6000EA94F801C1F70894C11CD11CFA94CF0C13
:107F7000D11C0EC0853739F428D08EE10CD085E9AC
:107F80000AD08FE07ACF813511F488E018D01DD067
:107F900080E101D065CF982F8091C00085FFFCCF94
:107FA0009093C60008958091C00087FFFCCF809118
:107FB000C00084FD01C0A8958091C6000895E0E648
:107FC000F0E098E1908380830895EDDF803219F02E
:107FD00088E0F5DFFFCF84E1DECF1F93182FE3DFCA
:107FE0001150E9F7F2DF1F91089580E0E8DFEE27F6
:047FF000FF270994CA
:027FFE00040479
:00000001FF
