:100000000C9435000C945D000C945D000C945D0024
:100010000C945D000C945D000C945D000C945D00EC
:100020000C945D000C945D000C945D000C945D00DC
:100030000C945D000C945D000C945D000C945D00CC
:100040000C94C3010C945D000C9433020C940D02CB
:100050000C9465020C945D000C945D000C945D00A2
:100060000C945D000C945D00920311241FBECFEF31
:10007000D8E0DEBFCDBF11E0A0E0B1E0EEE8F7E0F0
:1000800002C005900D92AA32B107D9F723E0AAE287
:10009000B1E001C01D92A03DB207E1F710E0C5E359
:1000A000D0E004C02197FE010E94BF03C433D107F2
:1000B000C9F70E9470020C94C5030C9400003FB76E
:1000C000F8948091CC039091CD03A091CE03B09190
:1000D000CF0326B5A89B05C02F3F19F00196A11D9F
:1000E000B11D3FBFBA2FA92F982F8827BC01CD0182
:1000F000620F711D811D911D42E0660F771F881FE1
:10010000991F4A95D1F708958F929F92AF92BF920F
:10011000CF92DF92EF92FF924B015C010E945F0051
:100120006B017C010E945F006C197D098E099F099B
:10013000683E734081059105A8F321E0821A910879
:10014000A108B10888EEC80E83E0D81EE11CF11C9E
:1001500081149104A104B10429F7FF90EF90DF907E
:10016000CF90BF90AF909F908F900895AF92BF9225
:10017000CF92DF92EF92FF920F931F93CF93DF9373
:100180006C017B018B01040F151FEB015E01AE18A2
:10019000BF08C017D10759F06991D601ED91FC91C4
:1001A0000190F081E02DC6010995892B79F7C501F1
:1001B000DF91CF911F910F91FF90EF90DF90CF9043
:1001C000BF90AF900895FC01538D448D252F30E0F2
:1001D000842F90E0821B930B541710F0CF96089554
:1001E00001970895FC01918D828D981761F0A28D81
:1001F000AE0FBF2FB11D5D968C91928D9F5F9F7347
:10020000928F90E008958FEF9FEF0895FC01918DFC
:10021000828D981731F0828DE80FF11D858D90E069
:1002200008958FEF9FEF0895FC01918D228D892F06
:1002300090E0805C9F4F821B91098F7399270895EE
:100240008AE293E00E94140121E0892B09F420E066
:10025000822F089580E090E0892B29F00E942001F0
:1002600081110C9400000895FC01A48DA80FB92FF2
:10027000B11DA35ABF4F2C91848D90E001968F73CE
:100280009927848FA689B7892C93A089B1898C91ED
:10029000837080648C93938D848D981306C002883C
:1002A000F389E02D80818F7D80830895EF92FF9206
:1002B0000F931F93CF93DF93EC0181E0888F9B8D89
:1002C0008C8D98131AC0E889F989808185FF15C043
:1002D0009FB7F894EE89FF896083E889F989808166
:1002E0008370806480839FBF81E090E0DF91CF9135
:1002F0001F910F91FF90EF900895F62E0B8D10E057
:100300000F5F1F4F0F731127E02E8C8D8E110CC0C5
:100310000FB607FCFACFE889F989808185FFF5CF10
:10032000CE010E943401F1CFEB8DEC0FFD2FF11DBA
:10033000E35AFF4FF0829FB7F8940B8FEA89FB894D
:1003400080818062CFCFCF93DF93EC01888D8823AB
:10035000B9F0AA89BB89E889F9898C9185FD03C028
:10036000808186FD0DC00FB607FCF7CF8C9185FF0D
:10037000F2CF808185FFEDCFCE010E943401E9CF1D
:10038000DF91CF9108951F920F920FB60F92112413
:100390002F933F938F939F93AF93BF938091C80305
:1003A0009091C903A091CA03B091CB033091C703C8
:1003B00023E0230F2D3758F50196A11DB11D209381
:1003C000C7038093C8039093C903A093CA03B09353
:1003D000CB038091CC039091CD03A091CE03B0913B
:1003E000CF030196A11DB11D8093CC039093CD0343
:1003F000A093CE03B093CF03BF91AF919F918F9104
:100400003F912F910F900FBE0F901F90189526E8E7
:10041000230F0296A11DB11DD2CF1F920F920FB6CE
:100420000F9211242F933F934F935F936F937F937A
:100430008F939F93AF93BF93EF93FF938AE293E0E1
:100440000E943401FF91EF91BF91AF919F918F91E5
:100450007F916F915F914F913F912F910F900FBEC0
:100460000F901F9018951F920F920FB60F921124A4
:100470002F938F939F93EF93FF93E0913A03F09123
:100480003B038081E0914003F091410382FD1BC05A
:100490009081809143038F5F8F7320914403821773
:1004A00041F0E0914303F0E0E65DFC4F958F8093CF
:1004B0004303FF91EF919F918F912F910F900FBE6A
:1004C0000F901F9018958081F4CF1F920F920FB656
:1004D0000F9211245A980F900FBE0F901F901895ED
:1004E000789484B5826084BD84B5816084BD85B50F
:1004F000826085BD85B5816085BD80916E0081601B
:1005000080936E00109281008091810082608093C0
:1005100081008091810081608093810080918000C2
:100520008160809380008091B10084608093B100ED
:100530008091B00081608093B00080917A008460E7
:1005400080937A0080917A00826080937A00809113
:100550007A00816080937A0080917A00806880932D
:100560007A001092C10064E670E080E090E00E94A2
:10057000840087E08AB988EF8BB9EAE2F1E030E0E5
:1005800020E0C90148E0BC01880F991F77FF04C033
:1005900051E2852750E195274150A9F78193919326
:1005A000339583E0EA32F80761F7E0913A03F0917E
:1005B0003B0382E08083E0913603F09137031082A1
:1005C000E0913803F09139038FEC8083109242035D
:1005D000E0913E03F0913F0386E08083E0913C038D
:1005E000F0913D03808180618083E0913C03F09134
:1005F0003D03808188608083E0913C03F0913D035E
:10060000808180688083E0913C03F0913D0380818C
:100610008F7D80838091C10084648093C10080912C
:10062000C00081608093C000C0E0D1E0C095D0954B
:10063000E8E3FE2E00E010E070E4E72E8AE293E0AB
:100640000E941401892B09F456C08AE293E00E94AB
:10065000F2008B3309F04FC08091C0008E7F8093F1
:10066000C0005A9A61E070E080E090E00E9484004F
:10067000A0E0B1E08FEF9FEF382F22274D91E92FB7
:10068000FF27E427EE0FFF1FE65DFE4F808191817B
:1006900082279327E1E0A631BE0771F790931601F8
:1006A00080931701D12CC12C80E0A82E81E0B82EB8
:1006B000F50161915F01F1E0CF16D10441F5CE0162
:1006C0008A0D9B1D892B09F46E258AE293E00E9416
:1006D000560158E1A51651E0B50651F78FEFC81A3B
:1006E000D80AE5E0CE16D104F9F668EC70E080E0B7
:1006F00090E00E9484000115110509F49FCF0E942B
:100700002001882309F49ACF0E94000095CF24E0AD
:10071000C216D104D1F6CE018A0D9B1D0697A9F60B
:100720006F25D3CFEAE2F3E01382128288EE93E0E2
:10073000A0E0B0E084839583A683B7838CE191E049
:100740009183808385EC90E09587848784EC90E0AA
:100750009787868780EC90E0918B808B81EC90E08E
:10076000938B828B82EC90E0958B848B86EC90E06F
:10077000978B868B118E128E138E148E0895EE0F2A
:0E078000FF1F0590F491E02D0994F894FFCF2F
:10078E000102030C0500060708090A06000A050BFC
:10079E0005060C080D050000000000005601B6000D
:0A07AE00E300A3011401F2000601AC
:00000001FF
