:100000000C9424010C9445010C9445010C94450179
:100010000C9445010C9445010C9445010C94450148
:100020000C9445010C9445010C9445010C94450138
:100030000C9445010C9445010C9445010C94450128
:100040000C9445010C94D2030C9445010C94450189
:100050000C9445010C9436030C9445010C94EC026D
:100060000C9445010C9445010C9445010C944501F8
:100070000C9445010C9445010C9445010C944501E8
:100080000C9445010C9445010C9445010C944501D8
:100090000C9445010C9445010C9445010C944501C8
:1000A0000C9445010C9445010C9445010C944501B8
:1000B0000C9445010C9445010C9445010C944501A8
:1000C0000C9445010C9445010C9445010C94450198
:1000D0000C9445010C9445010C9445010C94450188
:1000E0000C9445010C946B010C9492010C946F01DB
:1000F0000C94A5010C947A010C948E010C9465016A
:100100000C9480010C94A6010C9484010C948A0137
:100110000C94A0010C9477010C9473010C94980139
:100120000C949C010C94AA010000210024002700DB
:100130002A002D00300033000101000004010701F6
:100140000A0100002200250028002B002E003100AB
:10015000340002010000050108010B01000020002D
:100160002300260029002C002F003200000100008F
:10017000030106010901050505050705080808082A
:10018000020202020A0A080804040404010101012F
:10019000010101010303030303030303040707072A
:1001A0000C0C0C0C0C0C0C0C0202020206060606CF
:1001B000060606060B0B0B0B0B0B0B0B010210209C
:1001C000200808102040102040800201020108048D
:1001D0000201010204081020408080402010080421
:1001E000020180040201804020100804020108047A
:1001F00002010102040810204080010204081020BE
:10020000408000000A0B02090C0D0E0807030401D0
:1002100000000000000000000000000000000000DE
:1002200000000000000000000000000000001211AB
:1002300010000000000000000000000000000000AE
:10024000000000000000000011241FBECFEFD1E22B
:10025000DEBFCDBF00E00CBF12E0A0E0B2E0E6E7F9
:10026000FAE000E00BBF02C007900D92A635B1077F
:10027000D9F722E0A6E5B2E001C01D92AA36B20786
:10028000E1F70E9400040C9439050C9400008150A1
:10029000823108F05AC0E82FF0E08827ED5AFE4F6F
:1002A0008F4F0C9431057301770165016B016F016C
:1002B000A5017A01800184018A018E0192019801D1
:1002C0009C01A501A001A601AA01809180008F7761
:1002D000809380000895809180008F7DF9CF809178
:1002E0008000877FF5CF84B58F7784BD089584B56E
:1002F0008F7DFBCF8091B0008F778093B000089501
:100300008091B0008F7DF9CF809190008F7780939E
:1003100090000895809190008F7DF9CF809190009A
:10032000877FF5CF8091A0008F778093A0000895FC
:100330008091A0008F7DF9CF8091A000877FF5CFBD
:10034000809120018F778093200108958091200172
:100350008F7DF9CF80912001877FF5CFCF93DF93F9
:10036000282F30E0F901EE5FFD4F8491F901E4544C
:10037000FE4FD491F901EA58FE4FC491CC23A1F06D
:1003800081110E944701EC2FF0E0EE0FFF1FE45AAD
:10039000FE4FA591B491EC91ED2381E090E009F43A
:1003A00080E0DF91CF91089580E090E0FACF1F9335
:1003B000CF93DF93282F30E0F901EE5FFD4F84915A
:1003C000F901E454FE4FD491F901EA58FE4FC4916B
:1003D000CC23A9F0162F81110E944701EC2FF0E0E9
:1003E000EE0FFF1FEE5BFE4FA591B4918FB7F8940F
:1003F000EC91111108C0D095DE23DC938FBFDF9103
:10040000CF911F910895DE2BF8CFCF93DF9390E02B
:10041000FC01E454FE4F24918A589E4FFC018491C4
:100420008823D1F090E0880F991FFC01E85DFE4F12
:10043000A591B491FC01EE5BFE4FC591D491611181
:100440000EC09FB7F8948C91E22FE0958E238C9389
:100450002881E223E8839FBFDF91CF9108958FB772
:10046000F894EC91E22BEC938FBFF6CF3FB7F89462
:100470008091660290916702A0916802B091690232
:1004800026B5A89B05C02F3F19F00196A11DB11DEF
:100490003FBFBA2FA92F982F8827BC01CD01620F2B
:1004A000711D811D911D42E0660F771F881F991FE6
:1004B0004A95D1F708958F929F92AF92BF92CF92B3
:1004C000DF92EF92FF920E9436024B015C0188E0BE
:1004D000C82E82E5D82EE12CF12C0E943602681934
:1004E00079098A099B09683E734081059105A8F343
:1004F00021E0C21AD108E108F10888EE880E83E0F5
:10050000981EA11CB11CC114D104E104F10429F707
:10051000FF90EF90DF90CF90BF90AF909F908F9023
:100520000895EF92FF920F931F93CF93DF938A303A
:10053000D0F498E4E92E92E0F92E97E0899FE0014B
:10054000112410E000E0F801EC0FFD1FEE5FFD4FFD
:100550006081F70181917F010E94D7010F5F1F4FDA
:100560000730110581F7DF91CF911F910F91FF9017
:10057000EF900895FC018481882311F1808181111D
:100580001CC08181811114C08BE3808381838281AF
:1005900081508283808181111EC0818181111BC0A5
:1005A0008281811118C014828EE1838361E010C0C2
:1005B0009BE3908381508183EDCF81508083EACF8C
:1005C0008381882341F08150838360E080FDEECFFA
:1005D00085E10C94D70108951F920F920FB60F92E8
:1005E00011242F933F938F939F93AF93BF93809149
:1005F000620290916302A0916402B0916502309111
:10060000610223E0230F2D3758F50196A11DB11D7E
:10061000209361028093620290936302A09364022C
:10062000B09365028091660290916702A091680282
:10063000B09169020196A11DB11D8093660290934D
:100640006702A0936802B0936902BF91AF919F9136
:100650008F913F912F910F900FBE0F901F90189583
:1006600026E8230F0296A11DB11DD2CF1F920F9233
:100670000FB60F9211240BB60F920F931F932F9367
:100680003F934F935F936F937F938F939F93AF931A
:10069000BF93CF93EF93FF93C0915602EC2FF0E0FE
:1006A000E05BFD4F60E080810E94D701C530D1F54D
:1006B00010925602C0915602EC2FF0E0E05BFD4F25
:1006C00061E080810E94D70108E412E060E0F80157
:1006D00081918F010E94D701F2E00F341F07B1F71B
:1006E00060E08EE10E94D701C23009F449C0F0F405
:1006F000CC2359F1C130A1F1FF91EF91CF91BF917E
:10070000AF919F918F917F916F915F914F913F91A9
:100710002F911F910F910F900BBE0F900FBE0F9056
:100720001F901895CF5FC0935602C4CFC430A1F17B
:1007300068F1C53009F7E0910002F0910102808173
:100740006AE00E942505892F08C0E0910002F0911F
:10075000010282816AE00E9425050E949102CCCFAD
:10076000E0910002F091010282816AE00E94250579
:10077000892F0E94910261E08EE10E94D701BCCFD7
:10078000E0910002F09101028181E4CFE09100024A
:10079000F09101028181E9CFE0910002F091010224
:1007A0008081D8CF1F920F920FB60F9211240BB6F3
:1007B0000F922F933F934F935F936F937F938F93FA
:1007C0009F93AF93BF93EF93FF938CE592E00E94CA
:1007D000BA0287E592E00E94BA02FF91EF91BF91C1
:1007E000AF919F918F917F916F915F914F913F91C9
:1007F0002F910F900BBE0F900FBE0F901F9018956A
:10080000789484B5826084BD84B5816084BD85B5EB
:10081000826085BD85B5816085BD80916E008160F7
:1008200080936E001092810080918100826080939D
:10083000810080918100816080938100809180009F
:100840008160809380008091B10084608093B100CA
:100850008091B00081608093B000809191008260AF
:1008600080939100809191008160809391008091AC
:1008700090008160809390008091A10082608093BD
:10088000A1008091A10081608093A1008091A000CF
:1008900081608093A000809121018260809321017A
:1008A00080912101816080932101809120018160EC
:1008B0008093200180917A00846080937A008091F7
:1008C0007A00826080937A0080917A0081608093C0
:1008D0007A0080917A00806880937A001092C1003B
:1008E000F894109280009DE09093810082E08093C4
:1008F0006F0026EC3DE2309389002093880010922F
:10090000B0009093B10080936E0084E187BD61E0F8
:1009100085E10E94050260E085E10E94D70160E068
:1009200083E30E94050261E083E30E94D70160E057
:1009300082E30E94050261E082E30E94D70160E049
:100940008AE00E94050261E08AE00E94D70160E02F
:100950008BE00E94050261E08BE00E94D7018FEFDF
:1009600081B991E092B987B988B97894DD24D3949C
:10097000C0E0D0E00CE512E087E5E82E82E0F82E3A
:1009800083E30E94AE01892B51F4E0910002F091C3
:10099000010282818336E9F512820E945B0282E3C2
:1009A0000E94AE01892B51F4E0910002F091010206
:1009B00081818B3389F511820E945B028AE00E945B
:1009C000AE01892B71F4E0910002F09101021482D2
:1009D000EC55F24021F5F0920102E09200020E94F3
:1009E0005B028BE00E94AE01892B69F4E09100026A
:1009F000F091010284818823B9F01482128211825D
:100A000010820E945B02209709F4BACF0E94000076
:100A1000B7CF8F5F8283C1CF8F5F8183CDCF10939C
:100A2000010200930002DBCF8281811106C0818127
:100A3000811103C08081882311F0D482E2CF138218
:100A400060E085E10E94D701DCCF991B79E004C00A
:100A5000991F961708F0961B881F7A95C9F78095FD
:100A60000895EE0FFF1F881F8BBF0790F691E02DB2
:060A70001994F894FFCF79
:100A76005C0201010101010100000101000000000A
:100A86000101000101000101010101000001000155
:100A96000100000101010001010001010100010145
:100AA6000101010101010000000001010101010134
:100AB60001010101010001012524232221201F1E1D
:060AC600161718191A1B97
:00000001FF
