:100000000C9483000C94B4000C94B4000C94B400D1
:100010000C94B4000C94B4000C94B4000C94B40090
:100020000C94B4000C94B4000C94B4000C94B40080
:100030000C94B4000C94B4000C94B4000C94B40070
:100040000C94B4000C94B4000C94B4000C94B40060
:100050000C94B4000C94B4000C94B4000C944102C1
:100060000C94B4000C94B5020C948B020C94B40064
:100070000C94B4000C94B4000C94B4000C94B40030
:100080000C94B4000C94B4000C94B4000C94B40020
:100090000C94B4000C94B4000C94B4000C94B40010
:1000A0000C94B4000C94B4000C94B4000C94B40000
:1000B0000C94B4000C94B4000C94B4000C94B400F0
:1000C0000C94B4000C94B4000C94B4000C94B400E0
:1000D0000C94B4000C94B4000C94B4000C94B400D0
:1000E0000C94B4000C945D010C943A010C94A3019F
:1000F0000C9426040C940D010C946B010C94F001EB
:100100000C944901260411241FBECFEFD1E2DEBFBB
:10011000CDBF00E00CBF12E0A0E0B2E0EAEBF8E0F7
:1001200000E00BBF02C007900D92AE32B107D9F7C5
:1001300022E0AEE2B2E001C01D92A43DB207E1F7B9
:1001400010E0C3E8D0E000E006C021970109802F4D
:10015000FE010E945304C238D10780E00807A9F7C6
:100160000E94F6020C945B040C9400003FB7F894D4
:100170008091D0029091D102A091D202B091D3028D
:1001800026B5A89B05C02F3F19F00196A11DB11DF2
:100190003FBFBA2FA92F982F8827BC01CD01620F2E
:1001A000711D811D911D42E0660F771F881F991FE9
:1001B0004A95D1F708958F929F92AF92BF92CF92B6
:1001C000DF92EF92FF924B015C010E94B6006B013F
:1001D0007C010E94B6006C197D098E099F09683E5A
:1001E000734081059105A8F321E0821A9108A108C6
:1001F000B10888EEC80E83E0D81EE11CF11C811402
:100200009104A104B10429F7FF90EF90DF90CF9003
:10021000BF90AF909F908F900895AF92BF92CF9272
:10022000DF92EF92FF920F931F93CF93DF936C01B6
:100230007B018B01040F151FEB015E01AE18BF0897
:10024000C017D10759F06991D601ED91FC91019049
:10025000F081E02DC6011995892B79F7C501DF9151
:10026000CF911F910F91FF90EF90DF90CF90BF90B3
:10027000AF900895FC01538D448D252F30E0842FDD
:1002800090E0821B930B541710F0CF9608950197BE
:100290000895FC01918D828D981761F0A28DAE0FAB
:1002A000BF2FB11D5D968C91928D9F5F9F73928F32
:1002B00090E008958FEF9FEF0895FC01918D828D5E
:1002C000981731F0828DE80FF11D858D90E008952B
:1002D0008FEF9FEF0895FC01918D228D892F90E083
:1002E000805C9F4F821B91098F73992708958EE23E
:1002F00092E00E946B0121E0892B09F420E0822F1B
:100300000895FC01A48DA80FB92FB11DA35ABF4FAA
:100310002C91848D90E001968F739927848FA68904
:10032000B7892C93A089B1898C91837080648C9358
:10033000938D848D981306C00288F389E02D808107
:100340008F7D80830895EF92FF920F931F93CF9339
:10035000DF93EC0181E0888F9B8D8C8D98131AC000
:10036000E889F989808185FF15C09FB7F894EE89E7
:10037000FF896083E889F989808183708064808344
:100380009FBF81E090E0DF91CF911F910F91FF908F
:10039000EF900895F62E0B8D10E00F5F1F4F0F7337
:1003A0001127E02E8C8D8E110CC00FB607FCFACFF2
:1003B000E889F989808185FFF5CFCE010E9481010E
:1003C000F1CFEB8DEC0FFD2FF11DE35AFF4FF082C3
:1003D0009FB7F8940B8FEA89FB8980818062CFCF29
:1003E000CF93DF93EC01888D8823B9F0AA89BB896C
:1003F000E889F9898C9185FD03C0808186FD0DC057
:100400000FB607FCF7CF8C9185FFF2CF808185FF77
:10041000EDCFCE010E948101E9CFDF91CF91089508
:1004200080E090E0892B29F00E94770181110E94E1
:10043000000080E090E0892B49F080E090E0892B7B
:1004400029F00E94000081110E94000080E090E0ED
:10045000892B49F080E090E0892B29F00E94000070
:1004600081110E94000080E090E0892B49F080E03B
:1004700090E0892B29F00E94000081110C9400006B
:1004800008951F920F920FB60F9211242F933F934E
:100490008F939F93AF93BF938091CC029091CD02A5
:1004A000A091CE02B091CF023091CB0223E0230F76
:1004B0002D3758F50196A11DB11D2093CB028093D5
:1004C000CC029093CD02A093CE02B093CF02809144
:1004D000D0029091D102A091D202B091D3020196A4
:1004E000A11DB11D8093D0029093D102A093D2029E
:1004F000B093D302BF91AF919F918F913F912F9174
:100500000F900FBE0F901F90189526E8230F0296AC
:10051000A11DB11DD2CF1F920F920FB60F921124C1
:100520000BB60F922F933F934F935F936F937F93ED
:100530008F939F93AF93BF93EF93FF938EE292E0DD
:100540000E948101FF91EF91BF91AF919F918F9197
:100550007F916F915F914F913F912F910F900BBEC3
:100560000F900FBE0F901F9018951F920F920FB60D
:100570000F9211240BB60F922F938F939F93EF93AB
:10058000FF93E0913E02F0913F028081E0914402AE
:10059000F091450282FD1DC09081809147028F5FDE
:1005A0008F7320914802821741F0E0914702F0E0FA
:1005B000E25DFD4F958F80934702FF91EF919F91F0
:1005C0008F912F910F900BBE0F900FBE0F901F9029
:1005D00018958081F2CF1F920F920FB60F921124BF
:1005E0005A980F900FBE0F901F901895789484B56D
:1005F000826084BD84B5816084BD85B5826085BD1F
:1006000085B5816085BD80916E00816080936E00AC
:10061000109281008091810082608093810080919E
:10062000810081608093810080918000816080934F
:1006300080008091B10084608093B1008091B0000F
:1006400081608093B00080919100826080939100DE
:1006500080919100816080939100809190008160F1
:10066000809390008091A10082608093A10080918E
:10067000A10081608093A1008091A000816080939F
:10068000A00080912101826080932101809121014D
:1006900081608093210180912001816080932001FD
:1006A00080917A00846080937A0080917A008260E1
:1006B00080937A0080917A00816080937A008091A3
:1006C0007A00806880937A001092C10068EE73E02F
:1006D00080E090E00E94DB0087E08AB988EF8BB968
:1006E000E0913E02F0913F0282E08083E0913A0285
:1006F000F0913B021082E0913C02F0913D028AE8C9
:10070000808310924602E0914202F091430286E01B
:100710008083E0914002F09141028081806180837A
:10072000E0914002F0914102808188608083E091F5
:100730004002F0914102808180688083E091400214
:10074000F091410280818F7D80838091C10084641B
:100750008093C1008091C00081608093C00061E0FF
:1007600070E080E090E00E94DB007AE1C72E72E04A
:10077000D72E80E092E07C01E094F094EBE0BE2E76
:10078000F0E4AF2E8EE292E00E946B01892B09F417
:1007900050C08EE292E00E9449018E3D09F049C0AE
:1007A0008091C0008E7F8093C0005A9A61E070E013
:1007B00080E090E00E94DB00E0E0F2E090E080E08A
:1007C0002191922728E030E0AC01880F991F57FF54
:1007D00004C049E8842745E0942721503109A1F756
:1007E000CE16DF0669F790931A0280931B02D0E0C1
:1007F000C0E000E012E0F80161918F01C130D10545
:10080000D9F4C7018E0F9F1F499709F46A258EE21C
:1008100092E00E94A301F2E00C311F0761F72196DC
:10082000C530D10531F768EC70E080E090E00E94BF
:10083000DB000E941002A6CFC430D10541F7C701EA
:100840008E0F9F1F089719F76B25E1CFEEE2F2E0BC
:100850001382128288EE93E0A0E0B0E08483958357
:10086000A683B78380E292E09183808385EC90E059
:100870009587848784EC90E09787868780EC90E06A
:10088000918B808B81EC90E0938B828B82EC90E05B
:10089000958B848B86EC90E0978B868B118E128ED5
:1008A000138E148E0895EE0FFF1F881F8BBF0790C5
:0A08B000F691E02D1994F894FFCFA3
:1008BA000102030405060709081001020A0B0C0DC0
:1008CA0010080A0203020E090F0A101000000000A5
:0E08DA00A3010D013A01F0016B0149015D011E
:00000001FF
