:100000000C9435010C9466010C9466010C94660105
:100010000C9466010C9466010C9466010C946601C4
:100020000C9466010C9466010C9466010C946601B4
:100030000C9466010C9466010C9466010C946601A4
:100040000C9466010C9466010C9466010C94660194
:100050000C9466010C9466010C9466010C94A60342
:100060000C9466010C941A040C94F0030C94660131
:100070000C9466010C9466010C9466010C94660164
:100080000C9466010C9466010C9466010C94660154
:100090000C9466010C9466010C9466010C94660144
:1000A0000C9466010C9466010C9466010C94660134
:1000B0000C9466010C9466010C9466010C94660124
:1000C0000C9466010C9466010C9466010C94660114
:1000D0000C9466010C9466010C9466010C94660104
:1000E0000C9466010C9472020C94D9010C94C50115
:1000F0000C94C2020C9414020C9410020C9455033C
:100100000C94E4010C94AE020C94F8010C94F401EC
:100110000C94FC010C9462050C9408030C94D5011A
:100120000C9402020C949F020C9406020C94EE01B3
:100130000C94C0010C940A020C94EA010C94DD01A9
:100140000C94E1010C94D002000020002300260052
:1001500029002C002F0032000001000003010601DD
:10016000090100000A0B02090C0D0E080703040127
:10017000000000000000000000000000000000007F
:10018000000000000000000000000000000012114C
:10019000100000000000000000000000000000004F
:1001A00000000000000000000000220025002800E0
:1001B0002B002E003100340002010000050108016F
:1001C0000B0100002100240027002A002D00300030
:1001D000330001010000040107010A0105050505BE
:1001E000070508080808020202020A0A08080404AF
:1001F00004040101010101010101030303030303DD
:100200000303040707070C0C0C0C0C0C0C0C02026B
:10021000020206060606060606060B0B0B0B0B0B68
:100220000B0B0102102020080810204010204080F5
:1002300002010201080402010102040810204080AA
:100240008040201008040201800402018040201038
:100250000804020108040201010204081020408081
:100260000102040810204080620511241FBECFEF58
:10027000D1E2DEBFCDBF00E00CBF12E0A0E0B2E0F3
:10028000E2E3FBE000E00BBF02C007900D92A23159
:10029000B107D9F722E0A2E1B2E001C01D92A83B6C
:1002A000B207E1F711E0C5E3D1E000E006C0219715
:1002B0000109802FFE010E948F05C433D10780E021
:1002C0000807A9F70E9450040C9497050C940000AD
:1002D000CF93DF9390E0FC01EE5DFD4F24918452BB
:1002E0009E4FFC0184918823C1F090E0880F991FF4
:1002F000FC01EE53FE4FC591D491FC01E855FE4F31
:10030000A591B4919FB7F8943881822F809583236B
:100310008883EC91E22BEC939FBFDF91CF910895FE
:10032000282F30E0F901EE59FE4F9491F901EE5D6E
:10033000FD4F449124523E4FF9012491222309F4A8
:1003400077C0992311F191509231F8F4E92FF0E040
:100350008827E255FE4F8F4F0C948F05DD01E10198
:10036000C001D501D901C501E401EA01EE01F401A2
:10037000F801FC0102020602C5010A021002140281
:10038000809180008F7780938000E22FF0E0EE0F65
:10039000FF1FE85BFE4FA591B491EC91E42381E04F
:1003A00090E009F047C080E00895809180008F7D43
:1003B000EACF80918000877FE6CF84B58F7784BDB8
:1003C000E4CF84B58F7DFBCF8091B0008F77809391
:1003D000B000DBCF8091B0008F7DF9CF809190008D
:1003E0008F7780939000D1CF809190008F7DF9CF4F
:1003F00080919000877FF5CF8091A0008F778093C8
:10040000A000C3CF8091A0008F7DF9CF8091A00084
:10041000877FF5CF809120018F7780932001B5CF22
:10042000809120018F7DF9CF80912001877FF5CFCA
:1004300080E090E008953FB7F8948091B4029091E5
:10044000B502A091B602B091B70226B5A89B05C02F
:100450002F3F19F00196A11DB11D3FBFBA2FA92F43
:10046000982F8827BC01CD01620F711D811D911D40
:1004700042E0660F771F881F991F4A95D1F70895AC
:100480008F929F92AF92BF92CF92DF92EF92FF92A4
:100490004B015C010E941B026B017C010E941B024C
:1004A0006C197D098E099F09683E7340810591058D
:1004B000A8F321E0821A9108A108B10888EEC80EBD
:1004C00083E0D81EE11CF11C81149104A104B10445
:1004D00029F7FF90EF90DF90CF90BF90AF909F9063
:1004E0008F900895AF92BF92CF92DF92EF92FF92DA
:1004F0000F931F93CF93DF936C017B018B01040F4C
:10050000151FEB015E01AE18BF08C017D10759F0E7
:100510006991D601ED91FC910190F081E02DC60129
:100520001995892B79F7C501DF91CF911F910F9113
:10053000FF90EF90DF90CF90BF90AF900895FC01B7
:10054000538D448D252F30E0842F90E0821B930B38
:10055000541710F0CF96089501970895FC01918DDE
:10056000828D981761F0A28DAE0FBF2FB11D5D96E1
:100570008C91928D9F5F9F73928F90E008958FEF83
:100580009FEF0895FC01918D828D981731F0828D37
:10059000E80FF11D858D90E008958FEF9FEF08958E
:1005A000FC01918D228D892F90E0805C9F4F821BF2
:1005B00091098F739927089582E192E00E94D002F9
:1005C00021E0892B09F420E0822F0895FC01A48DFD
:1005D000A80FB92FB11DA35ABF4F2C91848D90E065
:1005E00001968F739927848FA689B7892C93A08948
:1005F000B1898C91837080648C93938D848D9813D2
:1006000006C00288F389E02D80818F7D8083089564
:10061000EF92FF920F931F93CF93DF93EC0181E052
:10062000888F9B8D8C8D98131AC0E889F9898081F9
:1006300085FF15C09FB7F894EE89FF896083E8892C
:10064000F98980818370806480839FBF81E090E01E
:10065000DF91CF911F910F91FF90EF900895F62EAB
:100660000B8D10E00F5F1F4F0F731127E02E8C8D45
:100670008E110CC00FB607FCFACFE889F98980818A
:1006800085FFF5CFCE010E94E602F1CFEB8DEC0F96
:10069000FD2FF11DE35AFF4FF0829FB7F8940B8FA7
:1006A000EA89FB8980818062CFCFCF93DF93EC0111
:1006B000888D8823B9F0AA89BB89E889F9898C914A
:1006C00085FD03C0808186FD0DC00FB607FCF7CF06
:1006D0008C9185FFF2CF808185FFEDCFCE010E9406
:1006E000E602E9CFDF91CF91089580E090E0892B79
:1006F00029F00E94DC0281110E94000080E090E05D
:10070000892B49F080E090E0892B29F00E940000BD
:1007100081110E94000080E090E0892B49F080E088
:1007200090E0892B29F00E94000081110E940000B6
:1007300080E090E0892B49F080E090E0892B29F05F
:100740000E94000081110C94000008951F920F92E6
:100750000FB60F9211242F933F938F939F93AF93D4
:10076000BF938091B0029091B102A091B202B0917A
:10077000B3023091AF0223E0230F2D3758F50196D5
:10078000A11DB11D2093AF028093B0029093B102DE
:10079000A093B202B093B3028091B4029091B502DB
:1007A000A091B602B091B7020196A11DB11D809330
:1007B000B4029093B502A093B602B093B702BF9172
:1007C000AF919F918F913F912F910F900FBE0F90FE
:1007D0001F90189526E8230F0296A11DB11DD2CFB8
:1007E0001F920F920FB60F9211240BB60F922F93F8
:1007F0003F934F935F936F937F938F939F93AF93A9
:10080000BF93EF93FF9382E192E00E94E602FF9193
:10081000EF91BF91AF919F918F917F916F915F9178
:100820004F913F912F910F900BBE0F900FBE0F90E5
:100830001F9018951F920F920FB60F9211240BB6AE
:100840000F922F938F939F93EF93FF93E091220248
:10085000F09123028081E0912802F091290282FD2B
:100860001DC0908180912B028F5F8F7320912C028D
:10087000821741F0E0912B02F0E0EE5EFD4F958F84
:1008800080932B02FF91EF919F918F912F910F9069
:100890000BBE0F900FBE0F901F9018958081F2CF66
:1008A000789484B5826084BD84B5816084BD85B54B
:1008B000826085BD85B5816085BD80916E00816057
:1008C00080936E00109281008091810082608093FD
:1008D00081008091810081608093810080918000FF
:1008E0008160809380008091B10084608093B1002A
:1008F0008091B00081608093B0008091910082600F
:10090000809391008091910081608093910080910B
:1009100090008160809390008091A100826080931C
:10092000A1008091A10081608093A1008091A0002E
:1009300081608093A00080912101826080932101D9
:10094000809121018160809321018091200181604B
:100950008093200180917A00846080937A00809156
:100960007A00826080937A0080917A00816080931F
:100970007A0080917A00806880937A001092C1009A
:100980008FEF87B918B880E40E94680181E40E9463
:100990006801E0912202F091230282E08083E091DD
:1009A0001E02F0911F021082E0912002F0912102BC
:1009B0008FEC808310922A02E0912602F0912702A8
:1009C00086E08083E0912402F0912502808180619D
:1009D0008083E0912402F0912502808188608083E9
:1009E000E0912402F0912502808180688083E0916B
:1009F0002402F091250280818F7D8083C8E1D4E2BA
:100A000012E401E8FF24F39482E192E00E94D00214
:100A1000892BA9F182E192E00E94AE02813A910510
:100A200071F4F8B888B1882351F160EB74E080E08C
:100A300090E00E94400288B1880F88B9F3CF823AD3
:100A40009105E9F4C8B960EB74E080E090E00E94A1
:100A50004002D8B960EB74E080E090E00E94400270
:100A600018B960EB74E080E090E00E94400208B9A1
:100A700060EB74E080E090E00E94400218B880E4EF
:100A80000E949001892B59F461EB82E192E00E946F
:100A9000080364EF71E080E090E00E94400281E48E
:100AA0000E949001892B59F462EB82E192E00E944E
:100AB000080364EF71E080E090E00E9440020E9431
:100AC0007503A2CFE2E1F2E01382128288EE93E096
:100AD000A0E0B0E084839583A683B78384E092E0AE
:100AE0009183808385EC90E09587848784EC90E007
:100AF0009787868780EC90E0918B808B81EC90E0EB
:100B0000938B828B82EC90E0958B848B86EC90E0CB
:100B1000978B868B118E128E138E148E0895EE0F86
:100B2000FF1F881F8BBF0790F691E02D1994F89452
:020B3000FFCFF5
:100B320000000000080372029F025503D002AE02B9
:020B4200C202ED
:00000001FF
